{
  "contractName": "ERC20",
  "abi": [
    {
      "inputs": [
        {
          "internalType": "uint256",
          "name": "amount_",
          "type": "uint256"
        },
        {
          "internalType": "address",
          "name": "beneficiary_",
          "type": "address"
        },
        {
          "internalType": "uint256",
          "name": "releaseTime_",
          "type": "uint256"
        }
      ],
      "stateMutability": "nonpayable",
      "type": "constructor"
    },
    {
      "anonymous": false,
      "inputs": [
        {
          "indexed": true,
          "internalType": "address",
          "name": "owner",
          "type": "address"
        },
        {
          "indexed": true,
          "internalType": "address",
          "name": "spender",
          "type": "address"
        },
        {
          "indexed": false,
          "internalType": "uint256",
          "name": "value",
          "type": "uint256"
        }
      ],
      "name": "Approval",
      "type": "event"
    },
    {
      "anonymous": false,
      "inputs": [
        {
          "indexed": true,
          "internalType": "address",
          "name": "from",
          "type": "address"
        },
        {
          "indexed": true,
          "internalType": "address",
          "name": "to",
          "type": "address"
        },
        {
          "indexed": false,
          "internalType": "uint256",
          "name": "value",
          "type": "uint256"
        }
      ],
      "name": "Transfer",
      "type": "event"
    },
    {
      "stateMutability": "payable",
      "type": "fallback",
      "payable": true
    },
    {
      "inputs": [],
      "name": "Price_Manager",
      "outputs": [
        {
          "internalType": "address",
          "name": "",
          "type": "address"
        }
      ],
      "stateMutability": "view",
      "type": "function",
      "constant": true
    },
    {
      "inputs": [],
      "name": "decimals",
      "outputs": [
        {
          "internalType": "uint256",
          "name": "",
          "type": "uint256"
        }
      ],
      "stateMutability": "view",
      "type": "function",
      "constant": true
    },
    {
      "inputs": [],
      "name": "name",
      "outputs": [
        {
          "internalType": "string",
          "name": "",
          "type": "string"
        }
      ],
      "stateMutability": "view",
      "type": "function",
      "constant": true
    },
    {
      "inputs": [],
      "name": "owner",
      "outputs": [
        {
          "internalType": "address",
          "name": "",
          "type": "address"
        }
      ],
      "stateMutability": "view",
      "type": "function",
      "constant": true
    },
    {
      "inputs": [],
      "name": "symbol",
      "outputs": [
        {
          "internalType": "string",
          "name": "",
          "type": "string"
        }
      ],
      "stateMutability": "view",
      "type": "function",
      "constant": true
    },
    {
      "inputs": [],
      "name": "wei_equals",
      "outputs": [
        {
          "internalType": "uint256",
          "name": "",
          "type": "uint256"
        }
      ],
      "stateMutability": "view",
      "type": "function",
      "constant": true
    },
    {
      "inputs": [],
      "name": "totalSupply",
      "outputs": [
        {
          "internalType": "uint256",
          "name": "",
          "type": "uint256"
        }
      ],
      "stateMutability": "view",
      "type": "function",
      "constant": true
    },
    {
      "inputs": [
        {
          "internalType": "address",
          "name": "account",
          "type": "address"
        }
      ],
      "name": "balanceOf",
      "outputs": [
        {
          "internalType": "uint256",
          "name": "",
          "type": "uint256"
        }
      ],
      "stateMutability": "view",
      "type": "function",
      "constant": true
    },
    {
      "inputs": [
        {
          "internalType": "address",
          "name": "recipient",
          "type": "address"
        },
        {
          "internalType": "uint256",
          "name": "amount",
          "type": "uint256"
        }
      ],
      "name": "transfer",
      "outputs": [
        {
          "internalType": "bool",
          "name": "",
          "type": "bool"
        }
      ],
      "stateMutability": "nonpayable",
      "type": "function"
    },
    {
      "inputs": [
        {
          "internalType": "address",
          "name": "tokenowner",
          "type": "address"
        },
        {
          "internalType": "address",
          "name": "spender",
          "type": "address"
        }
      ],
      "name": "allowance",
      "outputs": [
        {
          "internalType": "uint256",
          "name": "",
          "type": "uint256"
        }
      ],
      "stateMutability": "view",
      "type": "function",
      "constant": true
    },
    {
      "inputs": [
        {
          "internalType": "address",
          "name": "spender",
          "type": "address"
        },
        {
          "internalType": "uint256",
          "name": "amount",
          "type": "uint256"
        }
      ],
      "name": "approve",
      "outputs": [
        {
          "internalType": "bool",
          "name": "",
          "type": "bool"
        }
      ],
      "stateMutability": "nonpayable",
      "type": "function"
    },
    {
      "inputs": [
        {
          "internalType": "address",
          "name": "tokenOwner",
          "type": "address"
        },
        {
          "internalType": "address",
          "name": "recipient",
          "type": "address"
        },
        {
          "internalType": "uint256",
          "name": "amount",
          "type": "uint256"
        }
      ],
      "name": "transferFrom",
      "outputs": [
        {
          "internalType": "bool",
          "name": "",
          "type": "bool"
        }
      ],
      "stateMutability": "nonpayable",
      "type": "function"
    },
    {
      "inputs": [
        {
          "internalType": "uint256",
          "name": "_wei_equals",
          "type": "uint256"
        }
      ],
      "name": "set_token_Price",
      "outputs": [
        {
          "internalType": "uint256",
          "name": "",
          "type": "uint256"
        }
      ],
      "stateMutability": "nonpayable",
      "type": "function"
    },
    {
      "inputs": [],
      "name": "Buy_token",
      "outputs": [
        {
          "internalType": "bool",
          "name": "",
          "type": "bool"
        }
      ],
      "stateMutability": "payable",
      "type": "function",
      "payable": true
    },
    {
      "inputs": [],
      "name": "cap",
      "outputs": [
        {
          "internalType": "uint256",
          "name": "",
          "type": "uint256"
        }
      ],
      "stateMutability": "view",
      "type": "function",
      "constant": true
    },
    {
      "inputs": [
        {
          "internalType": "uint256",
          "name": "amount",
          "type": "uint256"
        }
      ],
      "name": "Generate_Token",
      "outputs": [],
      "stateMutability": "nonpayable",
      "type": "function"
    },
    {
      "inputs": [],
      "name": "beneficiary",
      "outputs": [
        {
          "internalType": "address",
          "name": "",
          "type": "address"
        }
      ],
      "stateMutability": "view",
      "type": "function",
      "constant": true
    },
    {
      "inputs": [],
      "name": "Amount",
      "outputs": [
        {
          "internalType": "uint256",
          "name": "",
          "type": "uint256"
        }
      ],
      "stateMutability": "view",
      "type": "function",
      "constant": true
    },
    {
      "inputs": [],
      "name": "releaseTime",
      "outputs": [
        {
          "internalType": "uint256",
          "name": "",
          "type": "uint256"
        }
      ],
      "stateMutability": "view",
      "type": "function",
      "constant": true
    },
    {
      "inputs": [],
      "name": "release",
      "outputs": [],
      "stateMutability": "nonpayable",
      "type": "function"
    },
    {
      "inputs": [
        {
          "internalType": "address",
          "name": "_new_owner",
          "type": "address"
        }
      ],
      "name": "Ownership_Transfer",
      "outputs": [],
      "stateMutability": "nonpayable",
      "type": "function"
    },
    {
      "inputs": [
        {
          "internalType": "address",
          "name": "_Price_Manager",
          "type": "address"
        }
      ],
      "name": "Set_Manager",
      "outputs": [],
      "stateMutability": "nonpayable",
      "type": "function"
    },
    {
      "inputs": [
        {
          "internalType": "uint256",
          "name": "amount",
          "type": "uint256"
        }
      ],
      "name": "return_token",
      "outputs": [
        {
          "internalType": "bool",
          "name": "",
          "type": "bool"
        }
      ],
      "stateMutability": "payable",
      "type": "function",
      "payable": true
    },
    {
      "inputs": [],
      "name": "checkbalance",
      "outputs": [
        {
          "internalType": "uint256",
          "name": "",
          "type": "uint256"
        }
      ],
      "stateMutability": "view",
      "type": "function",
      "constant": true
    },
    {
      "inputs": [],
      "name": "Self_Destroy",
      "outputs": [],
      "stateMutability": "nonpayable",
      "type": "function"
    }
  ],
  "bytecode": "0x61010060405260646008553480156200001757600080fd5b50604051620031c0380380620031c083398181016040528101906200003d919062000412565b4242826200004c9190620004f6565b116200008f576040517f08c379a00000000000000000000000000000000000000000000000000000000081526004016200008690620004a6565b60405180910390fd5b8260e081815250508173ffffffffffffffffffffffffffffffffffffffff1660a08173ffffffffffffffffffffffffffffffffffffffff1660601b815250508042620000dc9190620004f6565b60c081815250506040518060600160405280602681526020016200319a60269139600590805190602001906200011492919062000334565b506040518060400160405280600381526020017f5341480000000000000000000000000000000000000000000000000000000000815250600690805190602001906200016292919062000334565b50601260078190555033600360006101000a81548173ffffffffffffffffffffffffffffffffffffffff021916908373ffffffffffffffffffffffffffffffffffffffff16021790555033600460006101000a81548173ffffffffffffffffffffffffffffffffffffffff021916908373ffffffffffffffffffffffffffffffffffffffff160217905550600754600a620001fe9190620005ae565b61c3506200020d9190620006eb565b600281905550600254600080600460009054906101000a900473ffffffffffffffffffffffffffffffffffffffff1673ffffffffffffffffffffffffffffffffffffffff1673ffffffffffffffffffffffffffffffffffffffff16815260200190815260200160002081905550600754600a6200028b9190620005ae565b6037620002999190620006eb565b60808181525050600360009054906101000a900473ffffffffffffffffffffffffffffffffffffffff1673ffffffffffffffffffffffffffffffffffffffff163073ffffffffffffffffffffffffffffffffffffffff167fddf252ad1be2c89b69c2b068fc378daa952ba7f163c4a11628f55a4df523b3ef600254604051620003239190620004c8565b60405180910390a3505050620008b3565b82805462000342906200078a565b90600052602060002090601f016020900481019282620003665760008555620003b2565b82601f106200038157805160ff1916838001178555620003b2565b82800160010185558215620003b2579182015b82811115620003b157825182559160200191906001019062000394565b5b509050620003c19190620003c5565b5090565b5b80821115620003e0576000816000905550600101620003c6565b5090565b600081519050620003f5816200087f565b92915050565b6000815190506200040c8162000899565b92915050565b6000806000606084860312156200042e576200042d6200081e565b5b60006200043e86828701620003fb565b93505060206200045186828701620003e4565b92505060406200046486828701620003fb565b9150509250925092565b60006200047d603283620004e5565b91506200048a8262000830565b604082019050919050565b620004a08162000780565b82525050565b60006020820190508181036000830152620004c1816200046e565b9050919050565b6000602082019050620004df600083018462000495565b92915050565b600082825260208201905092915050565b6000620005038262000780565b9150620005108362000780565b9250827fffffffffffffffffffffffffffffffffffffffffffffffffffffffffffffffff03821115620005485762000547620007c0565b5b828201905092915050565b6000808291508390505b6001851115620005a5578086048111156200057d576200057c620007c0565b5b60018516156200058d5780820291505b80810290506200059d8562000823565b94506200055d565b94509492505050565b6000620005bb8262000780565b9150620005c88362000780565b9250620005f77fffffffffffffffffffffffffffffffffffffffffffffffffffffffffffffffff8484620005ff565b905092915050565b600082620006115760019050620006e4565b81620006215760009050620006e4565b81600181146200063a576002811462000645576200067b565b6001915050620006e4565b60ff8411156200065a5762000659620007c0565b5b8360020a915084821115620006745762000673620007c0565b5b50620006e4565b5060208310610133831016604e8410600b8410161715620006b55782820a905083811115620006af57620006ae620007c0565b5b620006e4565b620006c4848484600162000553565b92509050818404811115620006de57620006dd620007c0565b5b81810290505b9392505050565b6000620006f88262000780565b9150620007058362000780565b9250817fffffffffffffffffffffffffffffffffffffffffffffffffffffffffffffffff0483118215151615620007415762000740620007c0565b5b828202905092915050565b6000620007598262000760565b9050919050565b600073ffffffffffffffffffffffffffffffffffffffff82169050919050565b6000819050919050565b60006002820490506001821680620007a357607f821691505b60208210811415620007ba57620007b9620007ef565b5b50919050565b7f4e487b7100000000000000000000000000000000000000000000000000000000600052601160045260246000fd5b7f4e487b7100000000000000000000000000000000000000000000000000000000600052602260045260246000fd5b600080fd5b60008160011c9050919050565b7f546f6b656e54696d656c6f636b3a2072656c656173652074696d65206973206260008201527f65666f72652063757272656e742074696d650000000000000000000000000000602082015250565b6200088a816200074c565b81146200089657600080fd5b50565b620008a48162000780565b8114620008b057600080fd5b50565b60805160a05160601c60c05160e05161289c620008fe60003960008181610cd701528181610e950152610f010152600061149d01526000610be401526000610bbc015261289c6000f3fe60806040526004361061016a5760003560e01c8063844a3604116100d1578063aed459ad1161008a578063dd62ed3e11610064578063dd62ed3e14610515578063e1a332b014610552578063e653ee6114610582578063eaa9600b146105ab5761016b565b8063aed459ad1461048f578063b91d4001146104cc578063c1ac4a95146104f75761016b565b8063844a36041461039157806386d1a69f146103bc5780638da5cb5b146103d357806395d89b41146103fe578063a3dc41fa14610429578063a9059cbb146104525761016b565b8063355274ea11610123578063355274ea1461029357806338af3eed146102be5780634604a9a9146102e95780635a66bc6a146103005780635c8b7b6b1461032b57806370a08231146103545761016b565b806306fdde031461016d578063095ea7b31461019857806318160ddd146101d5578063217f72bf1461020057806323b872dd1461022b578063313ce567146102685761016b565b5b005b34801561017957600080fd5b506101826105d6565b60405161018f9190612098565b60405180910390f35b3480156101a457600080fd5b506101bf60048036038101906101ba9190611da5565b610664565b6040516101cc919061207d565b60405180910390f35b3480156101e157600080fd5b506101ea61083b565b6040516101f7919061227a565b60405180910390f35b34801561020c57600080fd5b50610215610845565b6040516102229190612062565b60405180910390f35b34801561023757600080fd5b50610252600480360381019061024d9190611d52565b61086b565b60405161025f919061207d565b60405180910390f35b34801561027457600080fd5b5061027d610bb2565b60405161028a919061227a565b60405180910390f35b34801561029f57600080fd5b506102a8610bb8565b6040516102b5919061227a565b60405180910390f35b3480156102ca57600080fd5b506102d3610be0565b6040516102e09190612062565b60405180910390f35b3480156102f557600080fd5b506102fe610c08565b005b34801561030c57600080fd5b50610315610cd3565b604051610322919061227a565b60405180910390f35b34801561033757600080fd5b50610352600480360381019061034d9190611de5565b610cfb565b005b34801561036057600080fd5b5061037b60048036038101906103769190611ce5565b610df9565b604051610388919061227a565b60405180910390f35b34801561039d57600080fd5b506103a6610e41565b6040516103b3919061227a565b60405180910390f35b3480156103c857600080fd5b506103d1610e47565b005b3480156103df57600080fd5b506103e8610f28565b6040516103f59190612062565b60405180910390f35b34801561040a57600080fd5b50610413610f4e565b6040516104209190612098565b60405180910390f35b34801561043557600080fd5b50610450600480360381019061044b9190611ce5565b610fdc565b005b34801561045e57600080fd5b5061047960048036038101906104749190611da5565b6110b0565b604051610486919061207d565b60405180910390f35b34801561049b57600080fd5b506104b660048036038101906104b19190611de5565b61139e565b6040516104c3919061227a565b60405180910390f35b3480156104d857600080fd5b506104e1611499565b6040516104ee919061227a565b60405180910390f35b6104ff6114c1565b60405161050c919061207d565b60405180910390f35b34801561052157600080fd5b5061053c60048036038101906105379190611d12565b61181b565b604051610549919061227a565b60405180910390f35b61056c60048036038101906105679190611de5565b6118a2565b604051610579919061207d565b60405180910390f35b34801561058e57600080fd5b506105a960048036038101906105a49190611ce5565b611bdf565b005b3480156105b757600080fd5b506105c0611cb3565b6040516105cd919061227a565b60405180910390f35b600580546105e390612441565b80601f016020809104026020016040519081016040528092919081815260200182805461060f90612441565b801561065c5780601f106106315761010080835404028352916020019161065c565b820191906000526020600020905b81548152906001019060200180831161063f57829003601f168201915b505050505081565b600080339050600073ffffffffffffffffffffffffffffffffffffffff168173ffffffffffffffffffffffffffffffffffffffff1614156106da576040517f08c379a00000000000000000000000000000000000000000000000000000000081526004016106d1906120fa565b60405180910390fd5b600073ffffffffffffffffffffffffffffffffffffffff168473ffffffffffffffffffffffffffffffffffffffff16141561074a576040517f08c379a00000000000000000000000000000000000000000000000000000000081526004016107419061217a565b60405180910390fd5b82600160008373ffffffffffffffffffffffffffffffffffffffff1673ffffffffffffffffffffffffffffffffffffffff16815260200190815260200160002060008673ffffffffffffffffffffffffffffffffffffffff1673ffffffffffffffffffffffffffffffffffffffff168152602001908152602001600020819055508373ffffffffffffffffffffffffffffffffffffffff168173ffffffffffffffffffffffffffffffffffffffff167f8c5be1e5ebec7d5bd14f71427d1e84f3dd0314c0f7b2291e5b200ac8c7c3b92585604051610828919061227a565b60405180910390a3600191505092915050565b6000600254905090565b600960009054906101000a900473ffffffffffffffffffffffffffffffffffffffff1681565b6000803390506000600160008773ffffffffffffffffffffffffffffffffffffffff1673ffffffffffffffffffffffffffffffffffffffff16815260200190815260200160002060008373ffffffffffffffffffffffffffffffffffffffff1673ffffffffffffffffffffffffffffffffffffffff168152602001908152602001600020549050838111610934576040517f08c379a000000000000000000000000000000000000000000000000000000000815260040161092b906121ba565b60405180910390fd5b83816109409190612392565b9050836000808873ffffffffffffffffffffffffffffffffffffffff1673ffffffffffffffffffffffffffffffffffffffff1681526020019081526020016000205461098c9190612392565b6000808873ffffffffffffffffffffffffffffffffffffffff1673ffffffffffffffffffffffffffffffffffffffff16815260200190815260200160002081905550836000808773ffffffffffffffffffffffffffffffffffffffff1673ffffffffffffffffffffffffffffffffffffffff16815260200190815260200160002054610a1891906122b1565b6000808773ffffffffffffffffffffffffffffffffffffffff1673ffffffffffffffffffffffffffffffffffffffff168152602001908152602001600020819055508473ffffffffffffffffffffffffffffffffffffffff168673ffffffffffffffffffffffffffffffffffffffff167fddf252ad1be2c89b69c2b068fc378daa952ba7f163c4a11628f55a4df523b3ef86604051610ab7919061227a565b60405180910390a380600160008873ffffffffffffffffffffffffffffffffffffffff1673ffffffffffffffffffffffffffffffffffffffff16815260200190815260200160002060008473ffffffffffffffffffffffffffffffffffffffff1673ffffffffffffffffffffffffffffffffffffffff168152602001908152602001600020819055508473ffffffffffffffffffffffffffffffffffffffff168673ffffffffffffffffffffffffffffffffffffffff167f8c5be1e5ebec7d5bd14f71427d1e84f3dd0314c0f7b2291e5b200ac8c7c3b92586604051610b9d919061227a565b60405180910390a36001925050509392505050565b60075481565b60007f0000000000000000000000000000000000000000000000000000000000000000905090565b60007f0000000000000000000000000000000000000000000000000000000000000000905090565b600460009054906101000a900473ffffffffffffffffffffffffffffffffffffffff1673ffffffffffffffffffffffffffffffffffffffff163373ffffffffffffffffffffffffffffffffffffffff1614610c98576040517f08c379a0000000000000000000000000000000000000000000000000000000008152600401610c8f9061215a565b60405180910390fd5b600460009054906101000a900473ffffffffffffffffffffffffffffffffffffffff1673ffffffffffffffffffffffffffffffffffffffff16ff5b60007f0000000000000000000000000000000000000000000000000000000000000000905090565b600360009054906101000a900473ffffffffffffffffffffffffffffffffffffffff1673ffffffffffffffffffffffffffffffffffffffff163373ffffffffffffffffffffffffffffffffffffffff1614610d8b576040517f08c379a0000000000000000000000000000000000000000000000000000000008152600401610d829061223a565b60405180910390fd5b610d93610bb8565b81600254610da191906122b1565b1115610de2576040517f08c379a0000000000000000000000000000000000000000000000000000000008152600401610dd9906121fa565b60405180910390fd5b80600254610df091906122b1565b60028190555050565b60008060008373ffffffffffffffffffffffffffffffffffffffff1673ffffffffffffffffffffffffffffffffffffffff168152602001908152602001600020549050919050565b60085481565b610e4f611499565b421015610e91576040517f08c379a0000000000000000000000000000000000000000000000000000000008152600401610e88906120ba565b60405180910390fd5b60007f000000000000000000000000000000000000000000000000000000000000000011610ef4576040517f08c379a0000000000000000000000000000000000000000000000000000000008152600401610eeb9061225a565b60405180910390fd5b610f25610eff610be0565b7f00000000000000000000000000000000000000000000000000000000000000006110b0565b50565b600360009054906101000a900473ffffffffffffffffffffffffffffffffffffffff1681565b60068054610f5b90612441565b80601f0160208091040260200160405190810160405280929190818152602001828054610f8790612441565b8015610fd45780601f10610fa957610100808354040283529160200191610fd4565b820191906000526020600020905b815481529060010190602001808311610fb757829003601f168201915b505050505081565b600360009054906101000a900473ffffffffffffffffffffffffffffffffffffffff1673ffffffffffffffffffffffffffffffffffffffff163373ffffffffffffffffffffffffffffffffffffffff161461106c576040517f08c379a00000000000000000000000000000000000000000000000000000000081526004016110639061211a565b60405180910390fd5b80600960006101000a81548173ffffffffffffffffffffffffffffffffffffffff021916908373ffffffffffffffffffffffffffffffffffffffff16021790555050565b600080339050600073ffffffffffffffffffffffffffffffffffffffff168173ffffffffffffffffffffffffffffffffffffffff161415611126576040517f08c379a000000000000000000000000000000000000000000000000000000000815260040161111d9061213a565b60405180910390fd5b600073ffffffffffffffffffffffffffffffffffffffff168473ffffffffffffffffffffffffffffffffffffffff161415611196576040517f08c379a000000000000000000000000000000000000000000000000000000000815260040161118d9061213a565b60405180910390fd5b826000808373ffffffffffffffffffffffffffffffffffffffff1673ffffffffffffffffffffffffffffffffffffffff1681526020019081526020016000205411611216576040517f08c379a000000000000000000000000000000000000000000000000000000000815260040161120d906120da565b60405180910390fd5b826000808373ffffffffffffffffffffffffffffffffffffffff1673ffffffffffffffffffffffffffffffffffffffff168152602001908152602001600020546112609190612392565b6000808373ffffffffffffffffffffffffffffffffffffffff1673ffffffffffffffffffffffffffffffffffffffff16815260200190815260200160002081905550826000808673ffffffffffffffffffffffffffffffffffffffff1673ffffffffffffffffffffffffffffffffffffffff168152602001908152602001600020546112ec91906122b1565b6000808673ffffffffffffffffffffffffffffffffffffffff1673ffffffffffffffffffffffffffffffffffffffff168152602001908152602001600020819055508373ffffffffffffffffffffffffffffffffffffffff168173ffffffffffffffffffffffffffffffffffffffff167fddf252ad1be2c89b69c2b068fc378daa952ba7f163c4a11628f55a4df523b3ef8560405161138b919061227a565b60405180910390a3600191505092915050565b6000600360009054906101000a900473ffffffffffffffffffffffffffffffffffffffff1673ffffffffffffffffffffffffffffffffffffffff163373ffffffffffffffffffffffffffffffffffffffff1614806114495750600960009054906101000a900473ffffffffffffffffffffffffffffffffffffffff1673ffffffffffffffffffffffffffffffffffffffff163373ffffffffffffffffffffffffffffffffffffffff16145b611488576040517f08c379a000000000000000000000000000000000000000000000000000000000815260040161147f906121da565b60405180910390fd5b816008819055506008549050919050565b60007f0000000000000000000000000000000000000000000000000000000000000000905090565b6000803390506000600854346114d79190612338565b9050600073ffffffffffffffffffffffffffffffffffffffff168273ffffffffffffffffffffffffffffffffffffffff161415611549576040517f08c379a00000000000000000000000000000000000000000000000000000000081526004016115409061213a565b60405180910390fd5b600034141561158d576040517f08c379a00000000000000000000000000000000000000000000000000000000081526004016115849061221a565b60405180910390fd5b80600080600460009054906101000a900473ffffffffffffffffffffffffffffffffffffffff1673ffffffffffffffffffffffffffffffffffffffff1673ffffffffffffffffffffffffffffffffffffffff168152602001908152602001600020541161162f576040517f08c379a0000000000000000000000000000000000000000000000000000000008152600401611626906120da565b60405180910390fd5b80600080600460009054906101000a900473ffffffffffffffffffffffffffffffffffffffff1673ffffffffffffffffffffffffffffffffffffffff1673ffffffffffffffffffffffffffffffffffffffff1681526020019081526020016000205461169b9190612392565b600080600360009054906101000a900473ffffffffffffffffffffffffffffffffffffffff1673ffffffffffffffffffffffffffffffffffffffff1673ffffffffffffffffffffffffffffffffffffffff16815260200190815260200160002081905550806000808473ffffffffffffffffffffffffffffffffffffffff1673ffffffffffffffffffffffffffffffffffffffff1681526020019081526020016000205461174991906122b1565b6000808473ffffffffffffffffffffffffffffffffffffffff1673ffffffffffffffffffffffffffffffffffffffff168152602001908152602001600020819055508173ffffffffffffffffffffffffffffffffffffffff16600360009054906101000a900473ffffffffffffffffffffffffffffffffffffffff1673ffffffffffffffffffffffffffffffffffffffff167fddf252ad1be2c89b69c2b068fc378daa952ba7f163c4a11628f55a4df523b3ef8360405161180a919061227a565b60405180910390a360019250505090565b6000600160008473ffffffffffffffffffffffffffffffffffffffff1673ffffffffffffffffffffffffffffffffffffffff16815260200190815260200160002060008373ffffffffffffffffffffffffffffffffffffffff1673ffffffffffffffffffffffffffffffffffffffff16815260200190815260200160002054905092915050565b600080339050600073ffffffffffffffffffffffffffffffffffffffff168173ffffffffffffffffffffffffffffffffffffffff161415611918576040517f08c379a000000000000000000000000000000000000000000000000000000000815260040161190f9061213a565b60405180910390fd5b826000808373ffffffffffffffffffffffffffffffffffffffff1673ffffffffffffffffffffffffffffffffffffffff1681526020019081526020016000205411611998576040517f08c379a000000000000000000000000000000000000000000000000000000000815260040161198f906120da565b60405180910390fd5b826000808373ffffffffffffffffffffffffffffffffffffffff1673ffffffffffffffffffffffffffffffffffffffff168152602001908152602001600020546119e29190612392565b6000808373ffffffffffffffffffffffffffffffffffffffff1673ffffffffffffffffffffffffffffffffffffffff1681526020019081526020016000208190555082600080600460009054906101000a900473ffffffffffffffffffffffffffffffffffffffff1673ffffffffffffffffffffffffffffffffffffffff1673ffffffffffffffffffffffffffffffffffffffff16815260200190815260200160002054611a9091906122b1565b600080600460009054906101000a900473ffffffffffffffffffffffffffffffffffffffff1673ffffffffffffffffffffffffffffffffffffffff1673ffffffffffffffffffffffffffffffffffffffff16815260200190815260200160002081905550600060085484611b049190612307565b90503373ffffffffffffffffffffffffffffffffffffffff166108fc829081150290604051600060405180830381858888f19350505050158015611b4c573d6000803e3d6000fd5b50600460009054906101000a900473ffffffffffffffffffffffffffffffffffffffff1673ffffffffffffffffffffffffffffffffffffffff168273ffffffffffffffffffffffffffffffffffffffff167fddf252ad1be2c89b69c2b068fc378daa952ba7f163c4a11628f55a4df523b3ef86604051611bcc919061227a565b60405180910390a3600192505050919050565b600360009054906101000a900473ffffffffffffffffffffffffffffffffffffffff1673ffffffffffffffffffffffffffffffffffffffff163373ffffffffffffffffffffffffffffffffffffffff1614611c6f576040517f08c379a0000000000000000000000000000000000000000000000000000000008152600401611c669061219a565b60405180910390fd5b80600360006101000a81548173ffffffffffffffffffffffffffffffffffffffff021916908373ffffffffffffffffffffffffffffffffffffffff16021790555050565b600047905090565b600081359050611cca81612838565b92915050565b600081359050611cdf8161284f565b92915050565b600060208284031215611cfb57611cfa612500565b5b6000611d0984828501611cbb565b91505092915050565b60008060408385031215611d2957611d28612500565b5b6000611d3785828601611cbb565b9250506020611d4885828601611cbb565b9150509250929050565b600080600060608486031215611d6b57611d6a612500565b5b6000611d7986828701611cbb565b9350506020611d8a86828701611cbb565b9250506040611d9b86828701611cd0565b9150509250925092565b60008060408385031215611dbc57611dbb612500565b5b6000611dca85828601611cbb565b9250506020611ddb85828601611cd0565b9150509250929050565b600060208284031215611dfb57611dfa612500565b5b6000611e0984828501611cd0565b91505092915050565b611e1b816123c6565b82525050565b611e2a816123d8565b82525050565b6000611e3b82612295565b611e4581856122a0565b9350611e5581856020860161240e565b611e5e81612505565b840191505092915050565b6000611e766032836122a0565b9150611e8182612516565b604082019050919050565b6000611e996020836122a0565b9150611ea482612565565b602082019050919050565b6000611ebc601d836122a0565b9150611ec78261258e565b602082019050919050565b6000611edf6029836122a0565b9150611eea826125b7565b604082019050919050565b6000611f026017836122a0565b9150611f0d82612606565b602082019050919050565b6000611f256029836122a0565b9150611f308261262f565b604082019050919050565b6000611f48601d836122a0565b9150611f538261267e565b602082019050919050565b6000611f6b6025836122a0565b9150611f76826126a7565b604082019050919050565b6000611f8e6021836122a0565b9150611f99826126f6565b604082019050919050565b6000611fb1601c836122a0565b9150611fbc82612745565b602082019050919050565b6000611fd46019836122a0565b9150611fdf8261276e565b602082019050919050565b6000611ff76017836122a0565b915061200282612797565b602082019050919050565b600061201a601d836122a0565b9150612025826127c0565b602082019050919050565b600061203d6023836122a0565b9150612048826127e9565b604082019050919050565b61205c81612404565b82525050565b60006020820190506120776000830184611e12565b92915050565b60006020820190506120926000830184611e21565b92915050565b600060208201905081810360008301526120b28184611e30565b905092915050565b600060208201905081810360008301526120d381611e69565b9050919050565b600060208201905081810360008301526120f381611e8c565b9050919050565b6000602082019050818103600083015261211381611eaf565b9050919050565b6000602082019050818103600083015261213381611ed2565b9050919050565b6000602082019050818103600083015261215381611ef5565b9050919050565b6000602082019050818103600083015261217381611f18565b9050919050565b6000602082019050818103600083015261219381611f3b565b9050919050565b600060208201905081810360008301526121b381611f5e565b9050919050565b600060208201905081810360008301526121d381611f81565b9050919050565b600060208201905081810360008301526121f381611fa4565b9050919050565b6000602082019050818103600083015261221381611fc7565b9050919050565b6000602082019050818103600083015261223381611fea565b9050919050565b600060208201905081810360008301526122538161200d565b9050919050565b6000602082019050818103600083015261227381612030565b9050919050565b600060208201905061228f6000830184612053565b92915050565b600081519050919050565b600082825260208201905092915050565b60006122bc82612404565b91506122c783612404565b9250827fffffffffffffffffffffffffffffffffffffffffffffffffffffffffffffffff038211156122fc576122fb612473565b5b828201905092915050565b600061231282612404565b915061231d83612404565b92508261232d5761232c6124a2565b5b828204905092915050565b600061234382612404565b915061234e83612404565b9250817fffffffffffffffffffffffffffffffffffffffffffffffffffffffffffffffff048311821515161561238757612386612473565b5b828202905092915050565b600061239d82612404565b91506123a883612404565b9250828210156123bb576123ba612473565b5b828203905092915050565b60006123d1826123e4565b9050919050565b60008115159050919050565b600073ffffffffffffffffffffffffffffffffffffffff82169050919050565b6000819050919050565b60005b8381101561242c578082015181840152602081019050612411565b8381111561243b576000848401525b50505050565b6000600282049050600182168061245957607f821691505b6020821081141561246d5761246c6124d1565b5b50919050565b7f4e487b7100000000000000000000000000000000000000000000000000000000600052601160045260246000fd5b7f4e487b7100000000000000000000000000000000000000000000000000000000600052601260045260246000fd5b7f4e487b7100000000000000000000000000000000000000000000000000000000600052602260045260246000fd5b600080fd5b6000601f19601f8301169050919050565b7f546f6b656e54696d656c6f636b3a2063757272656e742074696d65206973206260008201527f65666f72652072656c656173652074696d650000000000000000000000000000602082015250565b7f7472616e7366657220616d6f756e7420657865636465732062616c616e636573600082015250565b7f617070726f76652066726f6d20746865207a65726f2061646472657373000000600082015250565b7f4f6e6c79206f776e65722063616e204f6e6c79206170706f696e74205072696360008201527f65204d616e616765720000000000000000000000000000000000000000000000602082015250565b7f616464726573732073686f756c64206e6f742062652030000000000000000000600082015250565b7f4f6e6c79204669727374206f776e65722063616e2064657374726f792074686560008201527f20436f6e74726163740000000000000000000000000000000000000000000000602082015250565b7f417070726f76652066726f6d20746865207a65726f2061646472657373000000600082015250565b7f4f6e6c79206f776e65722063616e205472616e7366657220746865204f776e6560008201527f7273686970000000000000000000000000000000000000000000000000000000602082015250565b7f5472616e7366657220616d6f756e74206578656364657320616c6c6f77616e6360008201527f6500000000000000000000000000000000000000000000000000000000000000602082015250565b7f4f6e6c79206f776e65722063616e207365742074686520707269636500000000600082015250565b7f45524332304361707065643a2063617020657863656564656400000000000000600082015250565b7f50617920616d6f756e7420746f20627579206574686572000000000000000000600082015250565b7f4f6e6c79206f776e65722063616e2067656e657261746520746f6b656e000000600082015250565b7f546f6b656e54696d656c6f636b3a206e6f20746f6b656e7320746f2072656c6560008201527f6173650000000000000000000000000000000000000000000000000000000000602082015250565b612841816123c6565b811461284c57600080fd5b50565b61285881612404565b811461286357600080fd5b5056fea26469706673582212201a90aae4521882c82d220e21b14c72f6da7213da79d8a5f9e1dfc1ad6baaa10464736f6c63430008070033546f6b656e206d61646520627920486166697a2053617979656420416c692048616d64616e69",
  "immutableReferences": {
    "94": [
      {
        "length": 32,
        "start": 3004
      }
    ],
    "96": [
      {
        "length": 32,
        "start": 3044
      }
    ],
    "98": [
      {
        "length": 32,
        "start": 5277
      }
    ],
    "100": [
      {
        "length": 32,
        "start": 3287
      },
      {
        "length": 32,
        "start": 3733
      },
      {
        "length": 32,
        "start": 3841
      }
    ]
  },
  "source": "// SPDX-License-Identifier: MIT\n// Name: Syed Amir Shah Hamdani\n// Roll No: PIAIC69714\n// BCC Assignment 3C\n pragma solidity ^0.8.0;\ninterface IERC20{\n    function totalSupply() external view returns(uint256);\n    function balanceOf(address account) external view returns(uint256);\n    function transfer(address recipient,uint256 amount) external returns(bool);\n    function allowance(address owner,address spender) external view returns(uint256);\n    // This is to check that the person who we give Approval to transfer token fron \n    // our account.How many tokens Approval he still left;\n    function approve(address spender,uint256 amount) external returns(bool);\n    // This is to approve someone how to transfer certain amount of token from your \n    // account to someone else;\n    function transferFrom(address sender,address recipient,uint256 amount) external returns(bool);\n    // spender will use the function transferFrom to transfer amount;\n    event Transfer(address indexed from,address indexed to,uint256 value);\n    event Approval(address indexed owner,address indexed spender,uint256 value);\n}\ncontract ERC20 is IERC20{\n    mapping (address=>uint256) private _balances;\n    mapping (address=>mapping(address=>uint256)) private _allowances;\n\n    uint256 private _totalSupply;\n    address public owner;\n    address private token_owner;\n    \n    string public name;\n    string public symbol;\n    uint256 public decimals;\n     uint256 private immutable _cap;\n     // beneficiary of tokens after they are released\n    address private immutable _beneficiary;\n// timestamp when token release is enabled\n    uint256 private immutable _releaseTime;\n    uint256 private immutable _amount;\n     \n    constructor(\n        uint256 amount_,\n        address beneficiary_,\n        uint256 releaseTime_\n        \n    ) {\n        require(releaseTime_+block.timestamp > block.timestamp, \"TokenTimelock: release time is before current time\");\n        _amount = amount_;\n        _beneficiary = beneficiary_;\n        _releaseTime =(block.timestamp + releaseTime_);\n        name=\"Token made by Hafiz Sayyed Ali Hamdani\";\n        symbol=\"SAH\";\n        decimals=18;\n        owner=msg.sender;\n        token_owner=msg.sender;\n        _totalSupply=50000*10**decimals;\n        _balances[token_owner]= _totalSupply;\n        _cap = 55*10**decimals;\n        \n        emit Transfer(address(this),owner,_totalSupply);\n    }\n    \n    function totalSupply() public view override returns(uint256){\n        return _totalSupply;\n    }\n     function balanceOf(address account) public override view returns(uint256){\n         return _balances[account];\n     }\n     function transfer(address recipient,uint256 amount) public virtual override returns(bool){\n         address sender=msg.sender;\n         require(sender!=address(0),\"address should not be 0\");\n         require(recipient!=address(0),\"address should not be 0\");\n         require(_balances[sender]>amount,\"transfer amount execdes balances\");\n         \n         _balances[sender]=_balances[sender]-amount;\n         \n         _balances[recipient]=_balances[recipient]+amount;\n         \n         emit Transfer(sender,recipient,amount);\n         return true;\n     }\n      function allowance(address tokenowner,address spender) public view virtual override returns(uint256){\n          return _allowances[tokenowner][spender];\n      }\n      \n       function approve(address spender,uint256 amount) public virtual override returns(bool){\n           address tokenOwner=msg.sender;\n           require(tokenOwner!=address(0),\"approve from the zero address\");\n           require(spender!=address(0),\"Approve from the zero address\");\n           \n           _allowances[tokenOwner][spender]=amount;\n           emit Approval(tokenOwner,spender,amount);\n           return true;\n           \n       }\n       \n       function transferFrom(address tokenOwner,address recipient,uint256 amount) public virtual override returns(bool){\n       address spender=msg.sender;\n       uint256 _allowance=_allowances[tokenOwner][spender];\n       require(_allowance>amount,\"Transfer amount execdes allowance\");\n           _allowance=_allowance-amount;\n           _balances[tokenOwner]=_balances[tokenOwner]-amount;\n           _balances[recipient]=_balances[recipient]+amount;\n             emit Transfer(tokenOwner,recipient,amount);\n             _allowances[tokenOwner][spender]=_allowance;\n             emit Approval(tokenOwner,recipient,amount);\n         return true;\n           \n       }\n       // 1 wei=100 Token \n    uint256 public wei_equals=100;\n    address public Price_Manager;\n    \n    // There should be an additional method to adjust the price that allows the owner to adjust the price.\n    function set_token_Price(uint256 _wei_equals) external returns(uint256){\n        // 3. Update pricing method to allow owner and approver to change the price of the token\n        require(msg.sender==owner || msg.sender==Price_Manager,\"Only owner can set the price\");\n        wei_equals=_wei_equals;\n        return wei_equals;\n    }\n    // . Anyone can get the token by paying against ether\n     function Buy_token() public payable returns(bool){\n         address buyer=msg.sender;\n         uint256 amount=msg.value*wei_equals;\n         require(buyer!=address(0),\"address should not be 0\");\n         require(msg.value!=0,\"Pay amount to buy ether\");\n         require(_balances[token_owner]>amount,\"transfer amount execdes balances\");\n         \n         _balances[owner]=_balances[token_owner]-amount;\n         \n         _balances[buyer]=_balances[buyer]+amount;\n         \n         emit Transfer(owner,buyer,amount);\n         return true;\n     }\n    //   Add fallback payable method to Issue token based on Ether received. Say 1 Ether = 100 tokens.\n    fallback() external payable{\n        }\n       function cap() public view virtual returns (uint256) {\n        return _cap;\n    }\n    function Generate_Token(uint256 amount) public{\n        require(msg.sender==owner,\"Only owner can generate token\");\n        require(_totalSupply + amount <= cap(), \"ERC20Capped: cap exceeded\");\n        _totalSupply=_totalSupply+amount;\n    }\n    function beneficiary() public view virtual returns (address) {\n        return _beneficiary;\n    }\n    function Amount() public view virtual returns (uint256) {\n        return _amount;\n    }\n\n    \n    function releaseTime() public view virtual returns (uint256) {\n        return _releaseTime;\n    }\n    function release() public virtual {\n        require(block.timestamp >= releaseTime(), \"TokenTimelock: current time is before release time\");\n        require(_amount > 0, \"TokenTimelock: no tokens to release\");\n        transfer(beneficiary(), _amount);\n    }\n    // 1. Owner can transfer the ownership of the Token Contract.\n    function Ownership_Transfer(address _new_owner) public{\n        require(msg.sender==owner,\"Only owner can Transfer the Ownership\");\n        owner=_new_owner;\n    }\n    // 2. Owner can approve or delegate anybody to manage the pricing of tokens.\n    function Set_Manager(address _Price_Manager) public{\n        require(msg.sender==owner,\"Only owner can Only appoint Price Manager\");\n        Price_Manager=_Price_Manager;\n    }\n    // 4. Add the ability that Token Holder can return the Token and get back the Ether based on the current price.\n    function return_token(uint256 amount) public payable  returns(bool){\n         address sender=msg.sender;\n         require(sender!=address(0),\"address should not be 0\");\n         require(_balances[sender]>amount,\"transfer amount execdes balances\");\n         _balances[sender]=_balances[sender]-amount;\n         _balances[token_owner]=_balances[token_owner]+amount;\n         uint256 return_value=amount/wei_equals;\n         payable(msg.sender).transfer(return_value);\n         emit Transfer(sender,token_owner,amount);\n         return true;\n     }\n     function checkbalance()public view returns(uint){\n         return address(this).balance;\n     }\n     function Self_Destroy()public{\n         require(msg.sender==token_owner,\"Only First owner can destroy the Contract\");\n       selfdestruct(payable(token_owner));\n     }\n}\n\n// Name: Syed Amir Shah Hamdani\n// Roll No: PIAIC69714\n// BCC Assignment No: 3C\n    ",
  "sourcePath": "I:/PIAIC/Q3/BCC/Q3 BCC Assignments/Solidity-contract-1st/ASSIGNMENT-3C/contracts/ERC20.sol",
  "compiler": {
    "name": "solc",
    "version": "0.8.7+commit.e28d00a7.Emscripten.clang"
  },
  "schemaVersion": "3.3.3",
  "updatedAt": "2021-09-22T19:44:50.680Z",
  "networkType": "ethereum",
  "devdoc": {
    "kind": "dev",
    "methods": {},
    "version": 1
  },
  "userdoc": {
    "kind": "user",
    "methods": {},
    "version": 1
  }
}