{
  "contractName": "ERC721TOKEN",
  "abi": [
    {
      "inputs": [
        {
          "internalType": "string",
          "name": "_name",
          "type": "string"
        },
        {
          "internalType": "string",
          "name": "_symbol",
          "type": "string"
        },
        {
          "internalType": "uint256",
          "name": "Price_of_nft_",
          "type": "uint256"
        }
      ],
      "stateMutability": "nonpayable",
      "type": "constructor"
    },
    {
      "anonymous": false,
      "inputs": [
        {
          "indexed": true,
          "internalType": "address",
          "name": "owner",
          "type": "address"
        },
        {
          "indexed": true,
          "internalType": "address",
          "name": "approved",
          "type": "address"
        },
        {
          "indexed": true,
          "internalType": "uint256",
          "name": "tokenId",
          "type": "uint256"
        }
      ],
      "name": "Approval",
      "type": "event"
    },
    {
      "anonymous": false,
      "inputs": [
        {
          "indexed": true,
          "internalType": "address",
          "name": "owner",
          "type": "address"
        },
        {
          "indexed": true,
          "internalType": "address",
          "name": "operator",
          "type": "address"
        },
        {
          "indexed": false,
          "internalType": "bool",
          "name": "approved",
          "type": "bool"
        }
      ],
      "name": "ApprovalForAll",
      "type": "event"
    },
    {
      "anonymous": false,
      "inputs": [
        {
          "indexed": true,
          "internalType": "address",
          "name": "previousOwner",
          "type": "address"
        },
        {
          "indexed": true,
          "internalType": "address",
          "name": "newOwner",
          "type": "address"
        }
      ],
      "name": "OwnershipTransferred",
      "type": "event"
    },
    {
      "anonymous": false,
      "inputs": [
        {
          "indexed": true,
          "internalType": "address",
          "name": "from",
          "type": "address"
        },
        {
          "indexed": true,
          "internalType": "address",
          "name": "to",
          "type": "address"
        },
        {
          "indexed": true,
          "internalType": "uint256",
          "name": "tokenId",
          "type": "uint256"
        }
      ],
      "name": "Transfer",
      "type": "event"
    },
    {
      "inputs": [],
      "name": "Price_of_nft",
      "outputs": [
        {
          "internalType": "uint256",
          "name": "",
          "type": "uint256"
        }
      ],
      "stateMutability": "view",
      "type": "function",
      "constant": true
    },
    {
      "inputs": [],
      "name": "Sale_ending_time",
      "outputs": [
        {
          "internalType": "uint256",
          "name": "",
          "type": "uint256"
        }
      ],
      "stateMutability": "view",
      "type": "function",
      "constant": true
    },
    {
      "inputs": [],
      "name": "Sale_strting_time",
      "outputs": [
        {
          "internalType": "uint256",
          "name": "",
          "type": "uint256"
        }
      ],
      "stateMutability": "view",
      "type": "function",
      "constant": true
    },
    {
      "inputs": [
        {
          "internalType": "address",
          "name": "to",
          "type": "address"
        },
        {
          "internalType": "uint256",
          "name": "tokenId",
          "type": "uint256"
        }
      ],
      "name": "approve",
      "outputs": [],
      "stateMutability": "nonpayable",
      "type": "function"
    },
    {
      "inputs": [
        {
          "internalType": "address",
          "name": "owner",
          "type": "address"
        }
      ],
      "name": "balanceOf",
      "outputs": [
        {
          "internalType": "uint256",
          "name": "",
          "type": "uint256"
        }
      ],
      "stateMutability": "view",
      "type": "function",
      "constant": true
    },
    {
      "inputs": [],
      "name": "baseURI",
      "outputs": [
        {
          "internalType": "string",
          "name": "",
          "type": "string"
        }
      ],
      "stateMutability": "view",
      "type": "function",
      "constant": true
    },
    {
      "inputs": [
        {
          "internalType": "uint256",
          "name": "tokenId",
          "type": "uint256"
        }
      ],
      "name": "getApproved",
      "outputs": [
        {
          "internalType": "address",
          "name": "",
          "type": "address"
        }
      ],
      "stateMutability": "view",
      "type": "function",
      "constant": true
    },
    {
      "inputs": [
        {
          "internalType": "address",
          "name": "owner",
          "type": "address"
        },
        {
          "internalType": "address",
          "name": "operator",
          "type": "address"
        }
      ],
      "name": "isApprovedForAll",
      "outputs": [
        {
          "internalType": "bool",
          "name": "",
          "type": "bool"
        }
      ],
      "stateMutability": "view",
      "type": "function",
      "constant": true
    },
    {
      "inputs": [],
      "name": "lasttokenId",
      "outputs": [
        {
          "internalType": "uint256",
          "name": "",
          "type": "uint256"
        }
      ],
      "stateMutability": "view",
      "type": "function",
      "constant": true
    },
    {
      "inputs": [],
      "name": "name",
      "outputs": [
        {
          "internalType": "string",
          "name": "",
          "type": "string"
        }
      ],
      "stateMutability": "view",
      "type": "function",
      "constant": true
    },
    {
      "inputs": [],
      "name": "owner",
      "outputs": [
        {
          "internalType": "address",
          "name": "",
          "type": "address"
        }
      ],
      "stateMutability": "view",
      "type": "function",
      "constant": true
    },
    {
      "inputs": [
        {
          "internalType": "uint256",
          "name": "tokenId",
          "type": "uint256"
        }
      ],
      "name": "ownerOf",
      "outputs": [
        {
          "internalType": "address",
          "name": "",
          "type": "address"
        }
      ],
      "stateMutability": "view",
      "type": "function",
      "constant": true
    },
    {
      "inputs": [],
      "name": "renounceOwnership",
      "outputs": [],
      "stateMutability": "nonpayable",
      "type": "function"
    },
    {
      "inputs": [
        {
          "internalType": "address",
          "name": "from",
          "type": "address"
        },
        {
          "internalType": "address",
          "name": "to",
          "type": "address"
        },
        {
          "internalType": "uint256",
          "name": "tokenId",
          "type": "uint256"
        }
      ],
      "name": "safeTransferFrom",
      "outputs": [],
      "stateMutability": "nonpayable",
      "type": "function"
    },
    {
      "inputs": [
        {
          "internalType": "address",
          "name": "from",
          "type": "address"
        },
        {
          "internalType": "address",
          "name": "to",
          "type": "address"
        },
        {
          "internalType": "uint256",
          "name": "tokenId",
          "type": "uint256"
        },
        {
          "internalType": "bytes",
          "name": "_data",
          "type": "bytes"
        }
      ],
      "name": "safeTransferFrom",
      "outputs": [],
      "stateMutability": "nonpayable",
      "type": "function"
    },
    {
      "inputs": [
        {
          "internalType": "address",
          "name": "operator",
          "type": "address"
        },
        {
          "internalType": "bool",
          "name": "approved",
          "type": "bool"
        }
      ],
      "name": "setApprovalForAll",
      "outputs": [],
      "stateMutability": "nonpayable",
      "type": "function"
    },
    {
      "inputs": [
        {
          "internalType": "bytes4",
          "name": "interfaceId",
          "type": "bytes4"
        }
      ],
      "name": "supportsInterface",
      "outputs": [
        {
          "internalType": "bool",
          "name": "",
          "type": "bool"
        }
      ],
      "stateMutability": "view",
      "type": "function",
      "constant": true
    },
    {
      "inputs": [],
      "name": "symbol",
      "outputs": [
        {
          "internalType": "string",
          "name": "",
          "type": "string"
        }
      ],
      "stateMutability": "view",
      "type": "function",
      "constant": true
    },
    {
      "inputs": [
        {
          "internalType": "uint256",
          "name": "tokenId",
          "type": "uint256"
        }
      ],
      "name": "tokenURI",
      "outputs": [
        {
          "internalType": "string",
          "name": "",
          "type": "string"
        }
      ],
      "stateMutability": "view",
      "type": "function",
      "constant": true
    },
    {
      "inputs": [
        {
          "internalType": "address",
          "name": "from",
          "type": "address"
        },
        {
          "internalType": "address",
          "name": "to",
          "type": "address"
        },
        {
          "internalType": "uint256",
          "name": "tokenId",
          "type": "uint256"
        }
      ],
      "name": "transferFrom",
      "outputs": [],
      "stateMutability": "nonpayable",
      "type": "function"
    },
    {
      "inputs": [
        {
          "internalType": "address",
          "name": "newOwner",
          "type": "address"
        }
      ],
      "name": "transferOwnership",
      "outputs": [],
      "stateMutability": "nonpayable",
      "type": "function"
    },
    {
      "inputs": [
        {
          "internalType": "string",
          "name": "newbaseURI",
          "type": "string"
        }
      ],
      "name": "setbaseURI",
      "outputs": [],
      "stateMutability": "nonpayable",
      "type": "function"
    },
    {
      "inputs": [
        {
          "internalType": "uint256",
          "name": "_price",
          "type": "uint256"
        }
      ],
      "name": "setPriceNFT",
      "outputs": [],
      "stateMutability": "nonpayable",
      "type": "function"
    },
    {
      "inputs": [
        {
          "internalType": "uint256",
          "name": "quantity",
          "type": "uint256"
        }
      ],
      "name": "Buy_Token",
      "outputs": [],
      "stateMutability": "payable",
      "type": "function",
      "payable": true
    }
  ],
  "bytecode": "0x60806040526005426200001391906200040e565b60075562278d006007546200002991906200040e565b6008556040518060400160405280601b81526020017f68747470733a2f2f666c6f79646e66742e636f6d2f746f6b656e2f00000000008152506009908051906020019062000079929190620001e6565b506000600b553480156200008c57600080fd5b5060405162003902380380620039028339818101604052810190620000b291906200031f565b82828160009080519060200190620000cc929190620001e6565b508060019080519060200190620000e5929190620001e6565b50505062000108620000fc6200011860201b60201c565b6200012060201b60201c565b80600a8190555050505062000588565b600033905090565b6000600660009054906101000a900473ffffffffffffffffffffffffffffffffffffffff16905081600660006101000a81548173ffffffffffffffffffffffffffffffffffffffff021916908373ffffffffffffffffffffffffffffffffffffffff1602179055508173ffffffffffffffffffffffffffffffffffffffff168173ffffffffffffffffffffffffffffffffffffffff167f8be0079c531659141344cd1fd0a4f28419497f9722a3daafe3b4186f6b6457e060405160405180910390a35050565b828054620001f490620004ab565b90600052602060002090601f01602090048101928262000218576000855562000264565b82601f106200023357805160ff191683800117855562000264565b8280016001018555821562000264579182015b828111156200026357825182559160200191906001019062000246565b5b50905062000273919062000277565b5090565b5b808211156200029257600081600090555060010162000278565b5090565b6000620002ad620002a784620003db565b620003a7565b905082815260208101848484011115620002c657600080fd5b620002d384828562000475565b509392505050565b600082601f830112620002ed57600080fd5b8151620002ff84826020860162000296565b91505092915050565b60008151905062000319816200056e565b92915050565b6000806000606084860312156200033557600080fd5b600084015167ffffffffffffffff8111156200035057600080fd5b6200035e86828701620002db565b935050602084015167ffffffffffffffff8111156200037c57600080fd5b6200038a86828701620002db565b92505060406200039d8682870162000308565b9150509250925092565b6000604051905081810181811067ffffffffffffffff82111715620003d157620003d06200053f565b5b8060405250919050565b600067ffffffffffffffff821115620003f957620003f86200053f565b5b601f19601f8301169050602081019050919050565b60006200041b826200046b565b915062000428836200046b565b9250827fffffffffffffffffffffffffffffffffffffffffffffffffffffffffffffffff0382111562000460576200045f620004e1565b5b828201905092915050565b6000819050919050565b60005b838110156200049557808201518184015260208101905062000478565b83811115620004a5576000848401525b50505050565b60006002820490506001821680620004c457607f821691505b60208210811415620004db57620004da62000510565b5b50919050565b7f4e487b7100000000000000000000000000000000000000000000000000000000600052601160045260246000fd5b7f4e487b7100000000000000000000000000000000000000000000000000000000600052602260045260246000fd5b7f4e487b7100000000000000000000000000000000000000000000000000000000600052604160045260246000fd5b62000579816200046b565b81146200058557600080fd5b50565b61336a80620005986000396000f3fe60806040526004361061014b5760003560e01c80636c0360eb116100b6578063a22cb4651161006f578063a22cb46514610471578063b88d4fde1461049a578063c87b56dd146104c3578063d30044c514610500578063e985e9c51461052b578063f2fde38b146105685761014b565b80636c0360eb1461037357806370a082311461039e578063715018a6146103db578063761ef7b6146103f25780638da5cb5b1461041b57806395d89b41146104465761014b565b80632bdf0ab1116101085780632bdf0ab11461026357806342842e0e1461028e5780634a44f379146102b75780635ba71fee146102e05780635ee450781461030b5780636352211e146103365761014b565b806301ffc9a71461015057806306fdde031461018d578063081812fc146101b8578063095ea7b3146101f55780630b8d7bfd1461021e57806323b872dd1461023a575b600080fd5b34801561015c57600080fd5b50610177600480360381019061017291906122fc565b610591565b6040516101849190612be8565b60405180910390f35b34801561019957600080fd5b506101a2610673565b6040516101af9190612c03565b60405180910390f35b3480156101c457600080fd5b506101df60048036038101906101da919061238f565b610705565b6040516101ec9190612b81565b60405180910390f35b34801561020157600080fd5b5061021c600480360381019061021791906122c0565b61078a565b005b6102386004803603810190610233919061238f565b6108a2565b005b34801561024657600080fd5b50610261600480360381019061025c91906121ba565b610a0e565b005b34801561026f57600080fd5b50610278610a6e565b6040516102859190612ea5565b60405180910390f35b34801561029a57600080fd5b506102b560048036038101906102b091906121ba565b610a74565b005b3480156102c357600080fd5b506102de60048036038101906102d9919061234e565b610a94565b005b3480156102ec57600080fd5b506102f5610b2a565b6040516103029190612ea5565b60405180910390f35b34801561031757600080fd5b50610320610b30565b60405161032d9190612ea5565b60405180910390f35b34801561034257600080fd5b5061035d6004803603810190610358919061238f565b610b36565b60405161036a9190612b81565b60405180910390f35b34801561037f57600080fd5b50610388610be8565b6040516103959190612c03565b60405180910390f35b3480156103aa57600080fd5b506103c560048036038101906103c09190612155565b610c76565b6040516103d29190612ea5565b60405180910390f35b3480156103e757600080fd5b506103f0610d2e565b005b3480156103fe57600080fd5b506104196004803603810190610414919061238f565b610db6565b005b34801561042757600080fd5b50610430610e3c565b60405161043d9190612b81565b60405180910390f35b34801561045257600080fd5b5061045b610e66565b6040516104689190612c03565b60405180910390f35b34801561047d57600080fd5b5061049860048036038101906104939190612284565b610ef8565b005b3480156104a657600080fd5b506104c160048036038101906104bc9190612209565b611079565b005b3480156104cf57600080fd5b506104ea60048036038101906104e5919061238f565b6110db565b6040516104f79190612c03565b60405180910390f35b34801561050c57600080fd5b506105156111bf565b6040516105229190612ea5565b60405180910390f35b34801561053757600080fd5b50610552600480360381019061054d919061217e565b6111c5565b60405161055f9190612be8565b60405180910390f35b34801561057457600080fd5b5061058f600480360381019061058a9190612155565b611259565b005b60007f80ac58cd000000000000000000000000000000000000000000000000000000007bffffffffffffffffffffffffffffffffffffffffffffffffffffffff1916827bffffffffffffffffffffffffffffffffffffffffffffffffffffffff1916148061065c57507f5b5e139f000000000000000000000000000000000000000000000000000000007bffffffffffffffffffffffffffffffffffffffffffffffffffffffff1916827bffffffffffffffffffffffffffffffffffffffffffffffffffffffff1916145b8061066c575061066b82611351565b5b9050919050565b6060600080546106829061315f565b80601f01602080910402602001604051908101604052809291908181526020018280546106ae9061315f565b80156106fb5780601f106106d0576101008083540402835291602001916106fb565b820191906000526020600020905b8154815290600101906020018083116106de57829003601f168201915b5050505050905090565b6000610710826113bb565b61074f576040517f08c379a000000000000000000000000000000000000000000000000000000000815260040161074690612da5565b60405180910390fd5b6004600083815260200190815260200160002060009054906101000a900473ffffffffffffffffffffffffffffffffffffffff169050919050565b600061079582610b36565b90508073ffffffffffffffffffffffffffffffffffffffff168373ffffffffffffffffffffffffffffffffffffffff161415610806576040517f08c379a00000000000000000000000000000000000000000000000000000000081526004016107fd90612e25565b60405180910390fd5b8073ffffffffffffffffffffffffffffffffffffffff16610825611427565b73ffffffffffffffffffffffffffffffffffffffff16148061085457506108538161084e611427565b6111c5565b5b610893576040517f08c379a000000000000000000000000000000000000000000000000000000000815260040161088a90612d25565b60405180910390fd5b61089d838361142f565b505050565b80600a546108b0919061301b565b34146108f1576040517f08c379a00000000000000000000000000000000000000000000000000000000081526004016108e890612d05565b60405180910390fd5b606481600b546109019190612f94565b10610941576040517f08c379a000000000000000000000000000000000000000000000000000000000815260040161093890612c85565b60405180910390fd5b600754421015610986576040517f08c379a000000000000000000000000000000000000000000000000000000000815260040161097d90612e85565b60405180910390fd5b6008544211156109cb576040517f08c379a00000000000000000000000000000000000000000000000000000000081526004016109c290612e65565b60405180910390fd5b60005b81811015610a0a576001600b546109e59190612f94565b600b819055506109f733600b546114e8565b8080610a0290613191565b9150506109ce565b5050565b610a1f610a19611427565b82611506565b610a5e576040517f08c379a0000000000000000000000000000000000000000000000000000000008152600401610a5590612e45565b60405180910390fd5b610a698383836115e4565b505050565b600b5481565b610a8f83838360405180602001604052806000815250611079565b505050565b610a9c611427565b73ffffffffffffffffffffffffffffffffffffffff16610aba610e3c565b73ffffffffffffffffffffffffffffffffffffffff1614610b10576040517f08c379a0000000000000000000000000000000000000000000000000000000008152600401610b0790612dc5565b60405180910390fd5b8060099080519060200190610b26929190611f79565b5050565b60085481565b600a5481565b6000806002600084815260200190815260200160002060009054906101000a900473ffffffffffffffffffffffffffffffffffffffff169050600073ffffffffffffffffffffffffffffffffffffffff168173ffffffffffffffffffffffffffffffffffffffff161415610bdf576040517f08c379a0000000000000000000000000000000000000000000000000000000008152600401610bd690612d65565b60405180910390fd5b80915050919050565b60098054610bf59061315f565b80601f0160208091040260200160405190810160405280929190818152602001828054610c219061315f565b8015610c6e5780601f10610c4357610100808354040283529160200191610c6e565b820191906000526020600020905b815481529060010190602001808311610c5157829003601f168201915b505050505081565b60008073ffffffffffffffffffffffffffffffffffffffff168273ffffffffffffffffffffffffffffffffffffffff161415610ce7576040517f08c379a0000000000000000000000000000000000000000000000000000000008152600401610cde90612d45565b60405180910390fd5b600360008373ffffffffffffffffffffffffffffffffffffffff1673ffffffffffffffffffffffffffffffffffffffff168152602001908152602001600020549050919050565b610d36611427565b73ffffffffffffffffffffffffffffffffffffffff16610d54610e3c565b73ffffffffffffffffffffffffffffffffffffffff1614610daa576040517f08c379a0000000000000000000000000000000000000000000000000000000008152600401610da190612dc5565b60405180910390fd5b610db46000611840565b565b610dbe611427565b73ffffffffffffffffffffffffffffffffffffffff16610ddc610e3c565b73ffffffffffffffffffffffffffffffffffffffff1614610e32576040517f08c379a0000000000000000000000000000000000000000000000000000000008152600401610e2990612dc5565b60405180910390fd5b80600a8190555050565b6000600660009054906101000a900473ffffffffffffffffffffffffffffffffffffffff16905090565b606060018054610e759061315f565b80601f0160208091040260200160405190810160405280929190818152602001828054610ea19061315f565b8015610eee5780601f10610ec357610100808354040283529160200191610eee565b820191906000526020600020905b815481529060010190602001808311610ed157829003601f168201915b5050505050905090565b610f00611427565b73ffffffffffffffffffffffffffffffffffffffff168273ffffffffffffffffffffffffffffffffffffffff161415610f6e576040517f08c379a0000000000000000000000000000000000000000000000000000000008152600401610f6590612cc5565b60405180910390fd5b8060056000610f7b611427565b73ffffffffffffffffffffffffffffffffffffffff1673ffffffffffffffffffffffffffffffffffffffff16815260200190815260200160002060008473ffffffffffffffffffffffffffffffffffffffff1673ffffffffffffffffffffffffffffffffffffffff16815260200190815260200160002060006101000a81548160ff0219169083151502179055508173ffffffffffffffffffffffffffffffffffffffff16611028611427565b73ffffffffffffffffffffffffffffffffffffffff167f17307eab39ab6107e8899845ad3d59bd9653f200f220920489ca2b5937696c318360405161106d9190612be8565b60405180910390a35050565b61108a611084611427565b83611506565b6110c9576040517f08c379a00000000000000000000000000000000000000000000000000000000081526004016110c090612e45565b60405180910390fd5b6110d584848484611906565b50505050565b60606110e6826113bb565b611125576040517f08c379a000000000000000000000000000000000000000000000000000000000815260040161111c90612e05565b60405180910390fd5b60006040518060400160405280600581526020017f2e6a736f6e00000000000000000000000000000000000000000000000000000081525090506000611169611962565b9050600081511161118957604051806020016040528060008152506111b6565b80611193856119f4565b836040516020016111a693929190612b50565b6040516020818303038152906040525b92505050919050565b60075481565b6000600560008473ffffffffffffffffffffffffffffffffffffffff1673ffffffffffffffffffffffffffffffffffffffff16815260200190815260200160002060008373ffffffffffffffffffffffffffffffffffffffff1673ffffffffffffffffffffffffffffffffffffffff16815260200190815260200160002060009054906101000a900460ff16905092915050565b611261611427565b73ffffffffffffffffffffffffffffffffffffffff1661127f610e3c565b73ffffffffffffffffffffffffffffffffffffffff16146112d5576040517f08c379a00000000000000000000000000000000000000000000000000000000081526004016112cc90612dc5565b60405180910390fd5b600073ffffffffffffffffffffffffffffffffffffffff168173ffffffffffffffffffffffffffffffffffffffff161415611345576040517f08c379a000000000000000000000000000000000000000000000000000000000815260040161133c90612c45565b60405180910390fd5b61134e81611840565b50565b60007f01ffc9a7000000000000000000000000000000000000000000000000000000007bffffffffffffffffffffffffffffffffffffffffffffffffffffffff1916827bffffffffffffffffffffffffffffffffffffffffffffffffffffffff1916149050919050565b60008073ffffffffffffffffffffffffffffffffffffffff166002600084815260200190815260200160002060009054906101000a900473ffffffffffffffffffffffffffffffffffffffff1673ffffffffffffffffffffffffffffffffffffffff1614159050919050565b600033905090565b816004600083815260200190815260200160002060006101000a81548173ffffffffffffffffffffffffffffffffffffffff021916908373ffffffffffffffffffffffffffffffffffffffff160217905550808273ffffffffffffffffffffffffffffffffffffffff166114a283610b36565b73ffffffffffffffffffffffffffffffffffffffff167f8c5be1e5ebec7d5bd14f71427d1e84f3dd0314c0f7b2291e5b200ac8c7c3b92560405160405180910390a45050565b611502828260405180602001604052806000815250611ba1565b5050565b6000611511826113bb565b611550576040517f08c379a000000000000000000000000000000000000000000000000000000000815260040161154790612ce5565b60405180910390fd5b600061155b83610b36565b90508073ffffffffffffffffffffffffffffffffffffffff168473ffffffffffffffffffffffffffffffffffffffff1614806115ca57508373ffffffffffffffffffffffffffffffffffffffff166115b284610705565b73ffffffffffffffffffffffffffffffffffffffff16145b806115db57506115da81856111c5565b5b91505092915050565b8273ffffffffffffffffffffffffffffffffffffffff1661160482610b36565b73ffffffffffffffffffffffffffffffffffffffff161461165a576040517f08c379a000000000000000000000000000000000000000000000000000000000815260040161165190612de5565b60405180910390fd5b600073ffffffffffffffffffffffffffffffffffffffff168273ffffffffffffffffffffffffffffffffffffffff1614156116ca576040517f08c379a00000000000000000000000000000000000000000000000000000000081526004016116c190612ca5565b60405180910390fd5b6116d5838383611bfc565b6116e060008261142f565b6001600360008573ffffffffffffffffffffffffffffffffffffffff1673ffffffffffffffffffffffffffffffffffffffff16815260200190815260200160002060008282546117309190613075565b925050819055506001600360008473ffffffffffffffffffffffffffffffffffffffff1673ffffffffffffffffffffffffffffffffffffffff16815260200190815260200160002060008282546117879190612f94565b92505081905550816002600083815260200190815260200160002060006101000a81548173ffffffffffffffffffffffffffffffffffffffff021916908373ffffffffffffffffffffffffffffffffffffffff160217905550808273ffffffffffffffffffffffffffffffffffffffff168473ffffffffffffffffffffffffffffffffffffffff167fddf252ad1be2c89b69c2b068fc378daa952ba7f163c4a11628f55a4df523b3ef60405160405180910390a4505050565b6000600660009054906101000a900473ffffffffffffffffffffffffffffffffffffffff16905081600660006101000a81548173ffffffffffffffffffffffffffffffffffffffff021916908373ffffffffffffffffffffffffffffffffffffffff1602179055508173ffffffffffffffffffffffffffffffffffffffff168173ffffffffffffffffffffffffffffffffffffffff167f8be0079c531659141344cd1fd0a4f28419497f9722a3daafe3b4186f6b6457e060405160405180910390a35050565b6119118484846115e4565b61191d84848484611c01565b61195c576040517f08c379a000000000000000000000000000000000000000000000000000000000815260040161195390612c25565b60405180910390fd5b50505050565b6060600980546119719061315f565b80601f016020809104026020016040519081016040528092919081815260200182805461199d9061315f565b80156119ea5780601f106119bf576101008083540402835291602001916119ea565b820191906000526020600020905b8154815290600101906020018083116119cd57829003601f168201915b5050505050905090565b60606000821415611a3c576040518060400160405280600181526020017f30000000000000000000000000000000000000000000000000000000000000008152509050611b9c565b600082905060005b60008214611a6e578080611a5790613191565b915050600a82611a679190612fea565b9150611a44565b60008167ffffffffffffffff811115611ab0577f4e487b7100000000000000000000000000000000000000000000000000000000600052604160045260246000fd5b6040519080825280601f01601f191660200182016040528015611ae25781602001600182028036833780820191505090505b5090505b60008514611b9557600182611afb9190613075565b9150600a85611b0a91906131da565b6030611b169190612f94565b60f81b818381518110611b52577f4e487b7100000000000000000000000000000000000000000000000000000000600052603260045260246000fd5b60200101907effffffffffffffffffffffffffffffffffffffffffffffffffffffffffffff1916908160001a905350600a85611b8e9190612fea565b9450611ae6565b8093505050505b919050565b611bab8383611d98565b611bb86000848484611c01565b611bf7576040517f08c379a0000000000000000000000000000000000000000000000000000000008152600401611bee90612c25565b60405180910390fd5b505050565b505050565b6000611c228473ffffffffffffffffffffffffffffffffffffffff16611f66565b15611d8b578373ffffffffffffffffffffffffffffffffffffffff1663150b7a02611c4b611427565b8786866040518563ffffffff1660e01b8152600401611c6d9493929190612b9c565b602060405180830381600087803b158015611c8757600080fd5b505af1925050508015611cb857506040513d601f19601f82011682018060405250810190611cb59190612325565b60015b611d3b573d8060008114611ce8576040519150601f19603f3d011682016040523d82523d6000602084013e611ced565b606091505b50600081511415611d33576040517f08c379a0000000000000000000000000000000000000000000000000000000008152600401611d2a90612c25565b60405180910390fd5b805181602001fd5b63150b7a0260e01b7bffffffffffffffffffffffffffffffffffffffffffffffffffffffff1916817bffffffffffffffffffffffffffffffffffffffffffffffffffffffff191614915050611d90565b600190505b949350505050565b600073ffffffffffffffffffffffffffffffffffffffff168273ffffffffffffffffffffffffffffffffffffffff161415611e08576040517f08c379a0000000000000000000000000000000000000000000000000000000008152600401611dff90612d85565b60405180910390fd5b611e11816113bb565b15611e51576040517f08c379a0000000000000000000000000000000000000000000000000000000008152600401611e4890612c65565b60405180910390fd5b611e5d60008383611bfc565b6001600360008473ffffffffffffffffffffffffffffffffffffffff1673ffffffffffffffffffffffffffffffffffffffff1681526020019081526020016000206000828254611ead9190612f94565b92505081905550816002600083815260200190815260200160002060006101000a81548173ffffffffffffffffffffffffffffffffffffffff021916908373ffffffffffffffffffffffffffffffffffffffff160217905550808273ffffffffffffffffffffffffffffffffffffffff16600073ffffffffffffffffffffffffffffffffffffffff167fddf252ad1be2c89b69c2b068fc378daa952ba7f163c4a11628f55a4df523b3ef60405160405180910390a45050565b600080823b905060008111915050919050565b828054611f859061315f565b90600052602060002090601f016020900481019282611fa75760008555611fee565b82601f10611fc057805160ff1916838001178555611fee565b82800160010185558215611fee579182015b82811115611fed578251825591602001919060010190611fd2565b5b509050611ffb9190611fff565b5090565b5b80821115612018576000816000905550600101612000565b5090565b600061202f61202a84612ef1565b612ec0565b90508281526020810184848401111561204757600080fd5b61205284828561311d565b509392505050565b600061206d61206884612f21565b612ec0565b90508281526020810184848401111561208557600080fd5b61209084828561311d565b509392505050565b6000813590506120a7816132d8565b92915050565b6000813590506120bc816132ef565b92915050565b6000813590506120d181613306565b92915050565b6000815190506120e681613306565b92915050565b600082601f8301126120fd57600080fd5b813561210d84826020860161201c565b91505092915050565b600082601f83011261212757600080fd5b813561213784826020860161205a565b91505092915050565b60008135905061214f8161331d565b92915050565b60006020828403121561216757600080fd5b600061217584828501612098565b91505092915050565b6000806040838503121561219157600080fd5b600061219f85828601612098565b92505060206121b085828601612098565b9150509250929050565b6000806000606084860312156121cf57600080fd5b60006121dd86828701612098565b93505060206121ee86828701612098565b92505060406121ff86828701612140565b9150509250925092565b6000806000806080858703121561221f57600080fd5b600061222d87828801612098565b945050602061223e87828801612098565b935050604061224f87828801612140565b925050606085013567ffffffffffffffff81111561226c57600080fd5b612278878288016120ec565b91505092959194509250565b6000806040838503121561229757600080fd5b60006122a585828601612098565b92505060206122b6858286016120ad565b9150509250929050565b600080604083850312156122d357600080fd5b60006122e185828601612098565b92505060206122f285828601612140565b9150509250929050565b60006020828403121561230e57600080fd5b600061231c848285016120c2565b91505092915050565b60006020828403121561233757600080fd5b6000612345848285016120d7565b91505092915050565b60006020828403121561236057600080fd5b600082013567ffffffffffffffff81111561237a57600080fd5b61238684828501612116565b91505092915050565b6000602082840312156123a157600080fd5b60006123af84828501612140565b91505092915050565b6123c1816130a9565b82525050565b6123d0816130bb565b82525050565b60006123e182612f51565b6123eb8185612f67565b93506123fb81856020860161312c565b612404816132c7565b840191505092915050565b600061241a82612f5c565b6124248185612f78565b935061243481856020860161312c565b61243d816132c7565b840191505092915050565b600061245382612f5c565b61245d8185612f89565b935061246d81856020860161312c565b80840191505092915050565b6000612486603283612f78565b91507f4552433732313a207472616e7366657220746f206e6f6e20455243373231526560008301527f63656976657220696d706c656d656e74657200000000000000000000000000006020830152604082019050919050565b60006124ec602683612f78565b91507f4f776e61626c653a206e6577206f776e657220697320746865207a65726f206160008301527f64647265737300000000000000000000000000000000000000000000000000006020830152604082019050919050565b6000612552601c83612f78565b91507f4552433732313a20746f6b656e20616c7265616479206d696e746564000000006000830152602082019050919050565b6000612592601c83612f78565b91507f4f6e6c792031303020746f6b656e2063616e206265206d696e746564000000006000830152602082019050919050565b60006125d2602483612f78565b91507f4552433732313a207472616e7366657220746f20746865207a65726f2061646460008301527f72657373000000000000000000000000000000000000000000000000000000006020830152604082019050919050565b6000612638601983612f78565b91507f4552433732313a20617070726f766520746f2063616c6c6572000000000000006000830152602082019050919050565b6000612678602c83612f78565b91507f4552433732313a206f70657261746f7220717565727920666f72206e6f6e657860008301527f697374656e7420746f6b656e00000000000000000000000000000000000000006020830152604082019050919050565b60006126de601c83612f78565b91507f56616c7565206973206c657373207468656e20746865207072696365000000006000830152602082019050919050565b600061271e603883612f78565b91507f4552433732313a20617070726f76652063616c6c6572206973206e6f74206f7760008301527f6e6572206e6f7220617070726f76656420666f7220616c6c00000000000000006020830152604082019050919050565b6000612784602a83612f78565b91507f4552433732313a2062616c616e636520717565727920666f7220746865207a6560008301527f726f2061646472657373000000000000000000000000000000000000000000006020830152604082019050919050565b60006127ea602983612f78565b91507f4552433732313a206f776e657220717565727920666f72206e6f6e657869737460008301527f656e7420746f6b656e00000000000000000000000000000000000000000000006020830152604082019050919050565b6000612850602083612f78565b91507f4552433732313a206d696e7420746f20746865207a65726f20616464726573736000830152602082019050919050565b6000612890602c83612f78565b91507f4552433732313a20617070726f76656420717565727920666f72206e6f6e657860008301527f697374656e7420746f6b656e00000000000000000000000000000000000000006020830152604082019050919050565b60006128f6602083612f78565b91507f4f776e61626c653a2063616c6c6572206973206e6f7420746865206f776e65726000830152602082019050919050565b6000612936602983612f78565b91507f4552433732313a207472616e73666572206f6620746f6b656e2074686174206960008301527f73206e6f74206f776e00000000000000000000000000000000000000000000006020830152604082019050919050565b600061299c602f83612f78565b91507f4552433732314d657461646174613a2055524920717565727920666f72206e6f60008301527f6e6578697374656e7420746f6b656e00000000000000000000000000000000006020830152604082019050919050565b6000612a02602183612f78565b91507f4552433732313a20617070726f76616c20746f2063757272656e74206f776e6560008301527f72000000000000000000000000000000000000000000000000000000000000006020830152604082019050919050565b6000612a68603183612f78565b91507f4552433732313a207472616e736665722063616c6c6572206973206e6f74206f60008301527f776e6572206e6f7220617070726f7665640000000000000000000000000000006020830152604082019050919050565b6000612ace601383612f78565b91507f53616c65206973205374617274656420796574000000000000000000000000006000830152602082019050919050565b6000612b0e601783612f78565b91507f53616c65206973206e6f742053746172746564207965740000000000000000006000830152602082019050919050565b612b4a81613113565b82525050565b6000612b5c8286612448565b9150612b688285612448565b9150612b748284612448565b9150819050949350505050565b6000602082019050612b9660008301846123b8565b92915050565b6000608082019050612bb160008301876123b8565b612bbe60208301866123b8565b612bcb6040830185612b41565b8181036060830152612bdd81846123d6565b905095945050505050565b6000602082019050612bfd60008301846123c7565b92915050565b60006020820190508181036000830152612c1d818461240f565b905092915050565b60006020820190508181036000830152612c3e81612479565b9050919050565b60006020820190508181036000830152612c5e816124df565b9050919050565b60006020820190508181036000830152612c7e81612545565b9050919050565b60006020820190508181036000830152612c9e81612585565b9050919050565b60006020820190508181036000830152612cbe816125c5565b9050919050565b60006020820190508181036000830152612cde8161262b565b9050919050565b60006020820190508181036000830152612cfe8161266b565b9050919050565b60006020820190508181036000830152612d1e816126d1565b9050919050565b60006020820190508181036000830152612d3e81612711565b9050919050565b60006020820190508181036000830152612d5e81612777565b9050919050565b60006020820190508181036000830152612d7e816127dd565b9050919050565b60006020820190508181036000830152612d9e81612843565b9050919050565b60006020820190508181036000830152612dbe81612883565b9050919050565b60006020820190508181036000830152612dde816128e9565b9050919050565b60006020820190508181036000830152612dfe81612929565b9050919050565b60006020820190508181036000830152612e1e8161298f565b9050919050565b60006020820190508181036000830152612e3e816129f5565b9050919050565b60006020820190508181036000830152612e5e81612a5b565b9050919050565b60006020820190508181036000830152612e7e81612ac1565b9050919050565b60006020820190508181036000830152612e9e81612b01565b9050919050565b6000602082019050612eba6000830184612b41565b92915050565b6000604051905081810181811067ffffffffffffffff82111715612ee757612ee6613298565b5b8060405250919050565b600067ffffffffffffffff821115612f0c57612f0b613298565b5b601f19601f8301169050602081019050919050565b600067ffffffffffffffff821115612f3c57612f3b613298565b5b601f19601f8301169050602081019050919050565b600081519050919050565b600081519050919050565b600082825260208201905092915050565b600082825260208201905092915050565b600081905092915050565b6000612f9f82613113565b9150612faa83613113565b9250827fffffffffffffffffffffffffffffffffffffffffffffffffffffffffffffffff03821115612fdf57612fde61320b565b5b828201905092915050565b6000612ff582613113565b915061300083613113565b9250826130105761300f61323a565b5b828204905092915050565b600061302682613113565b915061303183613113565b9250817fffffffffffffffffffffffffffffffffffffffffffffffffffffffffffffffff048311821515161561306a5761306961320b565b5b828202905092915050565b600061308082613113565b915061308b83613113565b92508282101561309e5761309d61320b565b5b828203905092915050565b60006130b4826130f3565b9050919050565b60008115159050919050565b60007fffffffff0000000000000000000000000000000000000000000000000000000082169050919050565b600073ffffffffffffffffffffffffffffffffffffffff82169050919050565b6000819050919050565b82818337600083830152505050565b60005b8381101561314a57808201518184015260208101905061312f565b83811115613159576000848401525b50505050565b6000600282049050600182168061317757607f821691505b6020821081141561318b5761318a613269565b5b50919050565b600061319c82613113565b91507fffffffffffffffffffffffffffffffffffffffffffffffffffffffffffffffff8214156131cf576131ce61320b565b5b600182019050919050565b60006131e582613113565b91506131f083613113565b925082613200576131ff61323a565b5b828206905092915050565b7f4e487b7100000000000000000000000000000000000000000000000000000000600052601160045260246000fd5b7f4e487b7100000000000000000000000000000000000000000000000000000000600052601260045260246000fd5b7f4e487b7100000000000000000000000000000000000000000000000000000000600052602260045260246000fd5b7f4e487b7100000000000000000000000000000000000000000000000000000000600052604160045260246000fd5b6000601f19601f8301169050919050565b6132e1816130a9565b81146132ec57600080fd5b50565b6132f8816130bb565b811461330357600080fd5b50565b61330f816130c7565b811461331a57600080fd5b50565b61332681613113565b811461333157600080fd5b5056fea26469706673582212204b2bc1537a0e1c9c1d831258c2c3151399c084370b60d6cdf625900007bf57ee64736f6c63430008000033",
  "immutableReferences": {},
  "source": " /**\r\n *Submitted for verification at Etherscan.io on 2021-09-30\r\n*/\r\n\r\n//SPDX-License-Identifier: MIT\r\npragma solidity ^0.8.0;\r\n\r\n\r\ninterface IERC165 {\r\n    \r\n    function supportsInterface(bytes4 interfaceId) external view returns (bool);\r\n}\r\n\r\ninterface IERC721 is IERC165 {\r\n    \r\n    event Transfer(address indexed from, address indexed to, uint256 indexed tokenId);\r\n\r\n    \r\n    event Approval(address indexed owner, address indexed approved, uint256 indexed tokenId);\r\n\r\n    \r\n    event ApprovalForAll(address indexed owner, address indexed operator, bool approved);\r\n\r\n    \r\n    function balanceOf(address owner) external view returns (uint256 balance);\r\n\r\n    \r\n    function ownerOf(uint256 tokenId) external view returns (address owner);\r\n\r\n    \r\n    function safeTransferFrom(\r\n        address from,\r\n        address to,\r\n        uint256 tokenId\r\n    ) external;\r\n\r\n    \r\n    function transferFrom(\r\n        address from,\r\n        address to,\r\n        uint256 tokenId\r\n    ) external;\r\n\r\n    \r\n    function approve(address to, uint256 tokenId) external;\r\n\r\n    \r\n    function getApproved(uint256 tokenId) external view returns (address operator);\r\n\r\n    \r\n    function setApprovalForAll(address operator, bool _approved) external;\r\n\r\n    \r\n    function isApprovedForAll(address owner, address operator) external view returns (bool);\r\n\r\n    \r\n    function safeTransferFrom(\r\n        address from,\r\n        address to,\r\n        uint256 tokenId,\r\n        bytes calldata data\r\n    ) external;\r\n}\r\n\r\ninterface IERC721Receiver {\r\n    \r\n    function onERC721Received(\r\n        address operator,\r\n        address from,\r\n        uint256 tokenId,\r\n        bytes calldata data\r\n    ) external returns (bytes4);\r\n}\r\n\r\ninterface IERC721Metadata is IERC721 {\r\n    \r\n    function name() external view returns (string memory);\r\n\r\n    \r\n    function symbol() external view returns (string memory);\r\n\r\n    \r\n    function tokenURI(uint256 tokenId) external view returns (string memory);\r\n}\r\n\r\nlibrary Address {\r\n    \r\n    function isContract(address account) internal view returns (bool) {\r\n        \r\n        \r\n        \r\n\r\n        uint256 size;\r\n        assembly {\r\n            size := extcodesize(account)\r\n        }\r\n        return size > 0;\r\n    }\r\n\r\n    \r\n    function sendValue(address payable recipient, uint256 amount) internal {\r\n        require(address(this).balance >= amount, \"Address: insufficient balance\");\r\n\r\n        (bool success, ) = recipient.call{value: amount}(\"\");\r\n        require(success, \"Address: unable to send value, recipient may have reverted\");\r\n    }\r\n\r\n    \r\n    function functionCall(address target, bytes memory data) internal returns (bytes memory) {\r\n        return functionCall(target, data, \"Address: low-level call failed\");\r\n    }\r\n\r\n    \r\n    function functionCall(\r\n        address target,\r\n        bytes memory data,\r\n        string memory errorMessage\r\n    ) internal returns (bytes memory) {\r\n        return functionCallWithValue(target, data, 0, errorMessage);\r\n    }\r\n\r\n    \r\n    function functionCallWithValue(\r\n        address target,\r\n        bytes memory data,\r\n        uint256 value\r\n    ) internal returns (bytes memory) {\r\n        return functionCallWithValue(target, data, value, \"Address: low-level call with value failed\");\r\n    }\r\n\r\n    \r\n    function functionCallWithValue(\r\n        address target,\r\n        bytes memory data,\r\n        uint256 value,\r\n        string memory errorMessage\r\n    ) internal returns (bytes memory) {\r\n        require(address(this).balance >= value, \"Address: insufficient balance for call\");\r\n        require(isContract(target), \"Address: call to non-contract\");\r\n\r\n        (bool success, bytes memory returndata) = target.call{value: value}(data);\r\n        return _verifyCallResult(success, returndata, errorMessage);\r\n    }\r\n\r\n    \r\n    function functionStaticCall(address target, bytes memory data) internal view returns (bytes memory) {\r\n        return functionStaticCall(target, data, \"Address: low-level static call failed\");\r\n    }\r\n\r\n    \r\n    function functionStaticCall(\r\n        address target,\r\n        bytes memory data,\r\n        string memory errorMessage\r\n    ) internal view returns (bytes memory) {\r\n        require(isContract(target), \"Address: static call to non-contract\");\r\n\r\n        (bool success, bytes memory returndata) = target.staticcall(data);\r\n        return _verifyCallResult(success, returndata, errorMessage);\r\n    }\r\n\r\n    \r\n    function functionDelegateCall(address target, bytes memory data) internal returns (bytes memory) {\r\n        return functionDelegateCall(target, data, \"Address: low-level delegate call failed\");\r\n    }\r\n\r\n    \r\n    function functionDelegateCall(\r\n        address target,\r\n        bytes memory data,\r\n        string memory errorMessage\r\n    ) internal returns (bytes memory) {\r\n        require(isContract(target), \"Address: delegate call to non-contract\");\r\n\r\n        (bool success, bytes memory returndata) = target.delegatecall(data);\r\n        return _verifyCallResult(success, returndata, errorMessage);\r\n    }\r\n\r\n    function _verifyCallResult(\r\n        bool success,\r\n        bytes memory returndata,\r\n        string memory errorMessage\r\n    ) private pure returns (bytes memory) {\r\n        if (success) {\r\n            return returndata;\r\n        } else {\r\n            \r\n            if (returndata.length > 0) {\r\n                \r\n\r\n                assembly {\r\n                    let returndata_size := mload(returndata)\r\n                    revert(add(32, returndata), returndata_size)\r\n                }\r\n            } else {\r\n                revert(errorMessage);\r\n            }\r\n        }\r\n    }\r\n}\r\n\r\nabstract contract Context {\r\n    function _msgSender() internal view virtual returns (address) {\r\n        return msg.sender;\r\n    }\r\n\r\n    function _msgData() internal view virtual returns (bytes calldata) {\r\n        return msg.data;\r\n    }\r\n}\r\n\r\nlibrary Strings {\r\n    bytes16 private constant _HEX_SYMBOLS = \"0123456789abcdef\";\r\n\r\n    \r\n    function toString(uint256 value) internal pure returns (string memory) {\r\n        \r\n        \r\n\r\n        if (value == 0) {\r\n            return \"0\";\r\n        }\r\n        uint256 temp = value;\r\n        uint256 digits;\r\n        while (temp != 0) {\r\n            digits++;\r\n            temp /= 10;\r\n        }\r\n        bytes memory buffer = new bytes(digits);\r\n        while (value != 0) {\r\n            digits -= 1;\r\n            buffer[digits] = bytes1(uint8(48 + uint256(value % 10)));\r\n            value /= 10;\r\n        }\r\n        return string(buffer);\r\n    }\r\n\r\n    \r\n    function toHexString(uint256 value) internal pure returns (string memory) {\r\n        if (value == 0) {\r\n            return \"0x00\";\r\n        }\r\n        uint256 temp = value;\r\n        uint256 length = 0;\r\n        while (temp != 0) {\r\n            length++;\r\n            temp >>= 8;\r\n        }\r\n        return toHexString(value, length);\r\n    }\r\n\r\n    \r\n    function toHexString(uint256 value, uint256 length) internal pure returns (string memory) {\r\n        bytes memory buffer = new bytes(2 * length + 2);\r\n        buffer[0] = \"0\";\r\n        buffer[1] = \"x\";\r\n        for (uint256 i = 2 * length + 1; i > 1; --i) {\r\n            buffer[i] = _HEX_SYMBOLS[value & 0xf];\r\n            value >>= 4;\r\n        }\r\n        require(value == 0, \"Strings: hex length insufficient\");\r\n        return string(buffer);\r\n    }\r\n}\r\n\r\nabstract contract ERC165 is IERC165 {\r\n    \r\n    function supportsInterface(bytes4 interfaceId) public view virtual override returns (bool) {\r\n        return interfaceId == type(IERC165).interfaceId;\r\n    }\r\n}\r\n\r\ncontract ERC721 is Context, ERC165, IERC721, IERC721Metadata {\r\n    using Address for address;\r\n    using Strings for uint256;\r\n\r\n    \r\n    string private _name;\r\n\r\n    \r\n    string private _symbol;\r\n\r\n    \r\n    mapping(uint256 => address) private _owners;\r\n\r\n    \r\n    mapping(address => uint256) private _balances;\r\n\r\n    \r\n    mapping(uint256 => address) private _tokenApprovals;\r\n\r\n    \r\n    mapping(address => mapping(address => bool)) private _operatorApprovals;\r\n\r\n    \r\n    constructor(string memory name_, string memory symbol_) {\r\n        _name = name_;\r\n        _symbol = symbol_;\r\n    }\r\n\r\n    \r\n    function supportsInterface(bytes4 interfaceId) public view virtual override(ERC165, IERC165) returns (bool) {\r\n        return\r\n            interfaceId == type(IERC721).interfaceId ||\r\n            interfaceId == type(IERC721Metadata).interfaceId ||\r\n            super.supportsInterface(interfaceId);\r\n    }\r\n\r\n    \r\n    function balanceOf(address owner) public view virtual override returns (uint256) {\r\n        require(owner != address(0), \"ERC721: balance query for the zero address\");\r\n        return _balances[owner];\r\n    }\r\n\r\n    \r\n    function ownerOf(uint256 tokenId) public view virtual override returns (address) {\r\n        address owner = _owners[tokenId];\r\n        require(owner != address(0), \"ERC721: owner query for nonexistent token\");\r\n        return owner;\r\n    }\r\n\r\n    \r\n    function name() public view virtual override returns (string memory) {\r\n        return _name;\r\n    }\r\n\r\n    \r\n    function symbol() public view virtual override returns (string memory) {\r\n        return _symbol;\r\n    }\r\n\r\n    \r\n    function tokenURI(uint256 tokenId) public view virtual override returns (string memory) {\r\n        require(_exists(tokenId), \"ERC721Metadata: URI query for nonexistent token\");\r\n        string memory baseExtension=\".json\";\r\n        string memory baseURI = _baseURI();\r\n        return bytes(baseURI).length > 0 ? string(abi.encodePacked(baseURI, tokenId.toString(),baseExtension)) : \"\";\r\n    }\r\n\r\n    \r\n    function _baseURI() internal view virtual returns (string memory) {\r\n        return \"\";\r\n    }\r\n\r\n    \r\n    function approve(address to, uint256 tokenId) public virtual override {\r\n        address owner = ERC721.ownerOf(tokenId);\r\n        require(to != owner, \"ERC721: approval to current owner\");\r\n\r\n        require(\r\n            _msgSender() == owner || isApprovedForAll(owner, _msgSender()),\r\n            \"ERC721: approve caller is not owner nor approved for all\"\r\n        );\r\n\r\n        _approve(to, tokenId);\r\n    }\r\n\r\n    \r\n    function getApproved(uint256 tokenId) public view virtual override returns (address) {\r\n        require(_exists(tokenId), \"ERC721: approved query for nonexistent token\");\r\n\r\n        return _tokenApprovals[tokenId];\r\n    }\r\n\r\n    \r\n    function setApprovalForAll(address operator, bool approved) public virtual override {\r\n        require(operator != _msgSender(), \"ERC721: approve to caller\");\r\n\r\n        _operatorApprovals[_msgSender()][operator] = approved;\r\n        emit ApprovalForAll(_msgSender(), operator, approved);\r\n    }\r\n\r\n    \r\n    function isApprovedForAll(address owner, address operator) public view virtual override returns (bool) {\r\n        return _operatorApprovals[owner][operator];\r\n    }\r\n\r\n    \r\n    function transferFrom(\r\n        address from,\r\n        address to,\r\n        uint256 tokenId\r\n    ) public virtual override {\r\n        \r\n        require(_isApprovedOrOwner(_msgSender(), tokenId), \"ERC721: transfer caller is not owner nor approved\");\r\n\r\n        _transfer(from, to, tokenId);\r\n    }\r\n\r\n    \r\n    function safeTransferFrom(\r\n        address from,\r\n        address to,\r\n        uint256 tokenId\r\n    ) public virtual override {\r\n        safeTransferFrom(from, to, tokenId, \"\");\r\n    }\r\n\r\n    \r\n    function safeTransferFrom(\r\n        address from,\r\n        address to,\r\n        uint256 tokenId,\r\n        bytes memory _data\r\n    ) public virtual override {\r\n        require(_isApprovedOrOwner(_msgSender(), tokenId), \"ERC721: transfer caller is not owner nor approved\");\r\n        _safeTransfer(from, to, tokenId, _data);\r\n    }\r\n\r\n    \r\n    function _safeTransfer(\r\n        address from,\r\n        address to,\r\n        uint256 tokenId,\r\n        bytes memory _data\r\n    ) internal virtual {\r\n        _transfer(from, to, tokenId);\r\n        require(_checkOnERC721Received(from, to, tokenId, _data), \"ERC721: transfer to non ERC721Receiver implementer\");\r\n    }\r\n\r\n    \r\n    function _exists(uint256 tokenId) internal view virtual returns (bool) {\r\n        return _owners[tokenId] != address(0);\r\n    }\r\n\r\n    \r\n    function _isApprovedOrOwner(address spender, uint256 tokenId) internal view virtual returns (bool) {\r\n        require(_exists(tokenId), \"ERC721: operator query for nonexistent token\");\r\n        address owner = ERC721.ownerOf(tokenId);\r\n        return (spender == owner || getApproved(tokenId) == spender || isApprovedForAll(owner, spender));\r\n    }\r\n\r\n    \r\n    function _safeMint(address to, uint256 tokenId) internal virtual {\r\n        _safeMint(to, tokenId, \"\");\r\n    }\r\n\r\n    \r\n    function _safeMint(\r\n        address to,\r\n        uint256 tokenId,\r\n        bytes memory _data\r\n    ) internal virtual {\r\n        _mint(to, tokenId);\r\n        require(\r\n            _checkOnERC721Received(address(0), to, tokenId, _data),\r\n            \"ERC721: transfer to non ERC721Receiver implementer\"\r\n        );\r\n    }\r\n\r\n    \r\n    function _mint(address to, uint256 tokenId) internal virtual {\r\n        require(to != address(0), \"ERC721: mint to the zero address\");\r\n        require(!_exists(tokenId), \"ERC721: token already minted\");\r\n\r\n        _beforeTokenTransfer(address(0), to, tokenId);\r\n\r\n        _balances[to] += 1;\r\n        _owners[tokenId] = to;\r\n\r\n        emit Transfer(address(0), to, tokenId);\r\n    }\r\n\r\n    \r\n    function _burn(uint256 tokenId) internal virtual {\r\n        address owner = ERC721.ownerOf(tokenId);\r\n\r\n        _beforeTokenTransfer(owner, address(0), tokenId);\r\n\r\n        \r\n        _approve(address(0), tokenId);\r\n\r\n        _balances[owner] -= 1;\r\n        delete _owners[tokenId];\r\n\r\n        emit Transfer(owner, address(0), tokenId);\r\n    }\r\n\r\n    \r\n    function _transfer(\r\n        address from,\r\n        address to,\r\n        uint256 tokenId\r\n    ) internal virtual {\r\n        require(ERC721.ownerOf(tokenId) == from, \"ERC721: transfer of token that is not own\");\r\n        require(to != address(0), \"ERC721: transfer to the zero address\");\r\n\r\n        _beforeTokenTransfer(from, to, tokenId);\r\n\r\n        \r\n        _approve(address(0), tokenId);\r\n\r\n        _balances[from] -= 1;\r\n        _balances[to] += 1;\r\n        _owners[tokenId] = to;\r\n\r\n        emit Transfer(from, to, tokenId);\r\n    }\r\n\r\n    \r\n    function _approve(address to, uint256 tokenId) internal virtual {\r\n        _tokenApprovals[tokenId] = to;\r\n        emit Approval(ERC721.ownerOf(tokenId), to, tokenId);\r\n    }\r\n\r\n    \r\n    function _checkOnERC721Received(\r\n        address from,\r\n        address to,\r\n        uint256 tokenId,\r\n        bytes memory _data\r\n    ) private returns (bool) {\r\n        if (to.isContract()) {\r\n            try IERC721Receiver(to).onERC721Received(_msgSender(), from, tokenId, _data) returns (bytes4 retval) {\r\n                return retval == IERC721Receiver(to).onERC721Received.selector;\r\n            } catch (bytes memory reason) {\r\n                if (reason.length == 0) {\r\n                    revert(\"ERC721: transfer to non ERC721Receiver implementer\");\r\n                } else {\r\n                    assembly {\r\n                        revert(add(32, reason), mload(reason))\r\n                    }\r\n                }\r\n            }\r\n        } else {\r\n            return true;\r\n        }\r\n    }\r\n\r\n    \r\n    function _beforeTokenTransfer(\r\n        address from,\r\n        address to,\r\n        uint256 tokenId\r\n    ) internal virtual {}\r\n}\r\n\r\nabstract contract ReentrancyGuard {\r\n    \r\n    \r\n    uint256 private constant _NOT_ENTERED = 1;\r\n    uint256 private constant _ENTERED = 2;\r\n\r\n    uint256 private _status;\r\n\r\n    constructor() {\r\n        _status = _NOT_ENTERED;\r\n    }\r\n\r\n    \r\n    modifier nonReentrant() {\r\n        \r\n        require(_status != _ENTERED, \"ReentrancyGuard: reentrant call\");\r\n\r\n        \r\n        _status = _ENTERED;\r\n\r\n        _;\r\n\r\n        \r\n        \r\n        _status = _NOT_ENTERED;\r\n    }\r\n}\r\n\r\nabstract contract Ownable is Context {\r\n    address private _owner;\r\n\r\n    event OwnershipTransferred(address indexed previousOwner, address indexed newOwner);\r\n\r\n    \r\n    constructor() {\r\n        _setOwner(_msgSender());\r\n    }\r\n\r\n    \r\n    function owner() public view virtual returns (address) {\r\n        return _owner;\r\n    }\r\n\r\n    \r\n    modifier onlyOwner() {\r\n        require(owner() == _msgSender(), \"Ownable: caller is not the owner\");\r\n        _;\r\n    }\r\n\r\n    \r\n    function renounceOwnership() public virtual onlyOwner {\r\n        _setOwner(address(0));\r\n    }\r\n\r\n    \r\n    function transferOwnership(address newOwner) public virtual onlyOwner {\r\n        require(newOwner != address(0), \"Ownable: new owner is the zero address\");\r\n        _setOwner(newOwner);\r\n    }\r\n\r\n    function _setOwner(address newOwner) private {\r\n        address oldOwner = _owner;\r\n        _owner = newOwner;\r\n        emit OwnershipTransferred(oldOwner, newOwner);\r\n    }\r\n}\r\n\r\ncontract ERC721TOKEN is ERC721,Ownable{\r\n    uint256 public Sale_strting_time=block.timestamp+5;\r\n    // 2592000 This is the amount of seconds in 30 days\r\n    uint256 public Sale_ending_time=Sale_strting_time+2592000;\r\n    string public baseURI=\"https://floydnft.com/token/\";\r\n    uint256 public Price_of_nft;\r\n     uint256 public lasttokenId=0;\r\n    constructor(\r\n        string memory _name,\r\n        string memory _symbol,\r\n        uint256 Price_of_nft_) ERC721(_name,_symbol){\r\n         Price_of_nft=Price_of_nft_;   \r\n        }\r\n        function _baseURI() internal view override returns(string memory){\r\n            return baseURI;\r\n        }\r\n        // the owner can set base URI\r\n        function setbaseURI(string memory newbaseURI) external onlyOwner{\r\n        baseURI=newbaseURI;    \r\n        }\r\n        // the owner can set the price of NFT\r\n        function setPriceNFT(uint256 _price) external onlyOwner{\r\n            Price_of_nft=_price;\r\n        } \r\n        // NFT minting hard limit is 100;\r\n        function _safeMint(address to, uint256 tokenId) internal override {\r\n          \r\n        _safeMint(to, tokenId, \"\");\r\n    }\r\n    function Buy_Token(uint256 quantity) external payable {\r\n        require(msg.value==Price_of_nft*quantity,\"Value is less then the price\");\r\n          require(lasttokenId+quantity<100,\"Only 100 token can be minted\");\r\n        // user can only buy tokens when the sale is started;\r\n        require(block.timestamp>=Sale_strting_time,\"Sale is not Started yet\");\r\n        require(block.timestamp<=Sale_ending_time,\"Sale is Started yet\");\r\n        for(uint256 i=0;i<quantity;i++){\r\n            lasttokenId=lasttokenId+1;\r\n            _safeMint(msg.sender,lasttokenId);\r\n            // if(lasttokenId==99){\r\n            //     break;\r\n            // }\r\n        }\r\n        \r\n    }\r\n    \r\n} ",
  "sourcePath": "I:/PIAIC/Q3/BCC/Q3 BCC Assignments/Solidity-contract-1st/ASSIGNMENT 4 (ERC721)/contracts/ERC721TOKEN.sol",
  "compiler": {
    "name": "solc",
    "version": "0.8.0+commit.c7dfd78e.Emscripten.clang"
  },
  "schemaVersion": "3.3.3",
  "updatedAt": "2021-09-30T05:15:54.224Z",
  "networkType": "ethereum",
  "devdoc": {
    "kind": "dev",
    "methods": {},
    "version": 1
  },
  "userdoc": {
    "kind": "user",
    "methods": {},
    "version": 1
  }
}